{
  "address": "0x10DE37cF84202A20cae61069C617B3Aa874aF8b4",
  "abi": [
    {
      "inputs": [
        {
          "internalType": "contract IKeepTokenStaking",
          "name": "_keepTokenStaking",
          "type": "address"
        }
      ],
      "stateMutability": "nonpayable",
      "type": "constructor"
    },
    {
      "anonymous": false,
      "inputs": [
        {
          "indexed": true,
          "internalType": "address",
          "name": "previousOwner",
          "type": "address"
        },
        {
          "indexed": true,
          "internalType": "address",
          "name": "newOwner",
          "type": "address"
        }
      ],
      "name": "OwnershipTransferred",
      "type": "event"
    },
    {
      "inputs": [],
      "name": "keepTokenStaking",
      "outputs": [
        {
          "internalType": "contract IKeepTokenStaking",
          "name": "",
          "type": "address"
        }
      ],
      "stateMutability": "view",
      "type": "function"
    },
    {
      "inputs": [
        {
          "internalType": "address",
          "name": "",
          "type": "address"
        }
      ],
      "name": "operatorToGrantee",
      "outputs": [
        {
          "internalType": "address",
          "name": "",
          "type": "address"
        }
      ],
      "stateMutability": "view",
      "type": "function"
    },
    {
      "inputs": [
        {
          "internalType": "address",
          "name": "",
          "type": "address"
        }
      ],
      "name": "operatorToManagedGrant",
      "outputs": [
        {
          "internalType": "address",
          "name": "",
          "type": "address"
        }
      ],
      "stateMutability": "view",
      "type": "function"
    },
    {
      "inputs": [],
      "name": "owner",
      "outputs": [
        {
          "internalType": "address",
          "name": "",
          "type": "address"
        }
      ],
      "stateMutability": "view",
      "type": "function"
    },
    {
      "inputs": [],
      "name": "renounceOwnership",
      "outputs": [],
      "stateMutability": "nonpayable",
      "type": "function"
    },
    {
      "inputs": [
        {
          "internalType": "address",
          "name": "operator",
          "type": "address"
        }
      ],
      "name": "resolveOwner",
      "outputs": [
        {
          "internalType": "address",
          "name": "",
          "type": "address"
        }
      ],
      "stateMutability": "view",
      "type": "function"
    },
    {
      "inputs": [
        {
          "internalType": "address",
          "name": "operator",
          "type": "address"
        },
        {
          "internalType": "address",
          "name": "grantee",
          "type": "address"
        }
      ],
      "name": "setGrantee",
      "outputs": [],
      "stateMutability": "nonpayable",
      "type": "function"
    },
    {
      "inputs": [
        {
          "internalType": "address",
          "name": "operator",
          "type": "address"
        },
        {
          "internalType": "address",
          "name": "managedGrant",
          "type": "address"
        }
      ],
      "name": "setManagedGrant",
      "outputs": [],
      "stateMutability": "nonpayable",
      "type": "function"
    },
    {
      "inputs": [
        {
          "internalType": "address",
          "name": "newOwner",
          "type": "address"
        }
      ],
      "name": "transferOwnership",
      "outputs": [],
      "stateMutability": "nonpayable",
      "type": "function"
    }
  ],
  "transactionHash": "0xab80a05ee089aa5df29de6c6a5ec00e66c00f7d242623b0650c9ad2619cf6336",
  "args": [
    "0x1293a54e160D1cd7075487898d65266081A15458"
  ],
  "numDeployments": 1,
  "solcInputHash": "ecfd0a8dc1d11e9f659c5fce34a455a2",
  "bytecode": "0x60a060405234801561001057600080fd5b506040516117fa3803806117fa83398101604081905261002f91610099565b61003833610049565b6001600160a01b03166080526100c9565b600080546001600160a01b038381166001600160a01b0319831681178455604051919092169283917f8be0079c531659141344cd1fd0a4f28419497f9722a3daafe3b4186f6b6457e09190a35050565b6000602082840312156100ab57600080fd5b81516001600160a01b03811681146100c257600080fd5b9392505050565b6080516117106100ea6000396000818160b6015261028f01526117106000f3fe608060405234801561001057600080fd5b50600436106100835760003560e01c806301f326961461008857806303055815146100b157806310b648cb146100d8578063715018a6146100ed57806384f82c53146100f55780638da5cb5b14610108578063edc6640014610110578063f2fde38b14610139578063f371b2161461014c575b600080fd5b61009b61009636600461161e565b610175565b6040516100a8919061163b565b60405180910390f35b61009b7f000000000000000000000000000000000000000000000000000000000000000081565b6100eb6100e636600461164f565b610375565b005b6100eb6103d2565b6100eb61010336600461164f565b61040d565b61009b61046a565b61009b61011e36600461161e565b6002602052600090815260409020546001600160a01b031681565b6100eb61014736600461161e565b610479565b61009b61015a36600461161e565b6001602052600090815260409020546001600160a01b031681565b6001600160a01b03808216600090815260016020526040812054909116801561021057806001600160a01b031663d5f520766040518163ffffffff1660e01b815260040160206040518083038186803b1580156101d157600080fd5b505afa1580156101e5573d6000803e3d6000fd5b505050506040513d601f19601f820116820180604052508101906102099190611688565b9392505050565b506001600160a01b038083166000908152600260205260409020541680156102385792915050565b61024183610519565b90506001600160a01b038116156102585792915050565b610261836112b7565b90506001600160a01b038116156102785792915050565b604051630a57ebcf60e11b81526001600160a01b037f000000000000000000000000000000000000000000000000000000000000000016906314afd79e906102c490869060040161163b565b60206040518083038186803b1580156102dc57600080fd5b505afa1580156102f0573d6000803e3d6000fd5b505050506040513d601f19601f820116820180604052508101906103149190611688565b90506001600160a01b03811661036f5760405162461bcd60e51b815260206004820152601b60248201527a21b7bab632103737ba103932b9b7b63b32903a34329037bbb732b960291b60448201526064015b60405180910390fd5b92915050565b3361037e61046a565b6001600160a01b0316146103a45760405162461bcd60e51b8152600401610366906116a5565b6001600160a01b03918216600090815260016020526040902080546001600160a01b03191691909216179055565b336103db61046a565b6001600160a01b0316146104015760405162461bcd60e51b8152600401610366906116a5565b61040b60006115b9565b565b3361041661046a565b6001600160a01b03161461043c5760405162461bcd60e51b8152600401610366906116a5565b6001600160a01b03918216600090815260026020526040902080546001600160a01b03191691909216179055565b6000546001600160a01b031690565b3361048261046a565b6001600160a01b0316146104a85760405162461bcd60e51b8152600401610366906116a5565b6001600160a01b03811661050d5760405162461bcd60e51b815260206004820152602660248201527f4f776e61626c653a206e6577206f776e657220697320746865207a65726f206160448201526564647265737360d01b6064820152608401610366565b610516816115b9565b50565b600073855a951162b1b93d70724484d5bdc9d00b56236b6001600160a01b03831614156105c55773fadbf758307a054c57b365db1de90aca71feafe56001600160a01b031663d5f520766040518163ffffffff1660e01b815260040160206040518083038186803b15801561058d57600080fd5b505afa1580156105a1573d6000803e3d6000fd5b505050506040513d601f19601f8201168201806040525081019061036f9190611688565b73f1de9490bf7298b5f350ce74332ad7cf8d5cb1816001600160a01b03831614156106375773aed493aaf3e76e83b29e151848b71ef4544f92f16001600160a01b031663d5f520766040518163ffffffff1660e01b815260040160206040518083038186803b15801561058d57600080fd5b7339d2acbcd80d80080541c6eed7e9febb8127b2ab6001600160a01b03831614156106a95773a2fa09d6f8c251422f5fde29a0bad1c53defae666001600160a01b031663d5f520766040518163ffffffff1660e01b815260040160206040518083038186803b15801561058d57600080fd5b73d66cae89ffbc6e50e6b019e45c1aec93dec547816001600160a01b038316141561071b5773306309f9d105f34132db0bfb3ce3f5b0245cd3866001600160a01b031663d5f520766040518163ffffffff1660e01b815260040160206040518083038186803b15801561058d57600080fd5b732ebe08379f4fd866e871a9b9e1d5c695154c6a9f6001600160a01b038316141561078d5773d00c0d43b747c33726b3f0ff4bda4b72dc53c6e96001600160a01b031663d5f520766040518163ffffffff1660e01b815260040160206040518083038186803b15801561058d57600080fd5b73a97c34278162b556a527cfc01b53eb4ddedfd2236001600160a01b03831614156107ff5773b3e967355c456b1bd43cb0188a321592d410d0966001600160a01b031663d5f520766040518163ffffffff1660e01b815260040160206040518083038186803b15801561058d57600080fd5b736c76d49322c9f8761a1623ced89a31490cdb649d6001600160a01b03831614156108715773b3e967355c456b1bd43cb0188a321592d410d0966001600160a01b031663d5f520766040518163ffffffff1660e01b815260040160206040518083038186803b15801561058d57600080fd5b734a41c7a884d119eaaefe471d0b3a6382264083826001600160a01b03831614156108e35773cdf3d216d82a463ce82971f2f5da3d8f9c5f093a6001600160a01b031663d5f520766040518163ffffffff1660e01b815260040160206040518083038186803b15801561058d57600080fd5b739c06feb7ebc8065ee11cd5e8eedaafb2909a70876001600160a01b0383161415610955577345119cd98d145283762ba9ebcaea75f72d1887336001600160a01b031663d5f520766040518163ffffffff1660e01b815260040160206040518083038186803b15801561058d57600080fd5b739bd818ab6acc974f2cf2bd2eba7a250126accb9f6001600160a01b03831614156109c757736e535043377067621954ee84065b0bd7357e7aba6001600160a01b031663d5f520766040518163ffffffff1660e01b815260040160206040518083038186803b15801561058d57600080fd5b731d803c89760f8b4057db15bcb3b8929e0498d3106001600160a01b0383161415610a395773b3e967355c456b1bd43cb0188a321592d410d0966001600160a01b031663d5f520766040518163ffffffff1660e01b815260040160206040518083038186803b15801561058d57600080fd5b733101927deec27a2bfa6c4a6316e3a221f631db916001600160a01b0383161415610aab5773178bf1946fed0e2362fdf8bcd3f91f0701a012c66001600160a01b031663d5f520766040518163ffffffff1660e01b815260040160206040518083038186803b15801561058d57600080fd5b739d9b187e478bc62694a7bed216fc365de87f280c6001600160a01b0383161415610b1d5773fbad17cfad6cb00d726c65501d69fdc13ca5477c6001600160a01b031663d5f520766040518163ffffffff1660e01b815260040160206040518083038186803b15801561058d57600080fd5b73d977144724bc77faefae219f958ae3947205d0b56001600160a01b0383161415610b8f5773087b442bfd4e42675cf2df5fa566f87d7a96fb126001600160a01b031663d5f520766040518163ffffffff1660e01b815260040160206040518083038186803b15801561058d57600080fd5b73045e511f53debf55c9c0b4522f14f602f7c7ca816001600160a01b0383161415610c015773fcfe8c036c414a15cf871071c483687095caf7d66001600160a01b031663d5f520766040518163ffffffff1660e01b815260040160206040518083038186803b15801561058d57600080fd5b733dd301b3c96a282d8092e1e6f6846f24172d45c16001600160a01b0383161415610c735773b5bdd2d9b3541fc8f581af37430d26527e59aef86001600160a01b031663d5f520766040518163ffffffff1660e01b815260040160206040518083038186803b15801561058d57600080fd5b735d84deb482e770479154028788df79aa7c563aa46001600160a01b0383161415610ce557739d1a179c469a8bdd0b683a9f9250246cc47e8fbe6001600160a01b031663d5f520766040518163ffffffff1660e01b815260040160206040518083038186803b15801561058d57600080fd5b731df927b69a97e8140315536163c029d188e8573b6001600160a01b0383161415610d575773b5bdd2d9b3541fc8f581af37430d26527e59aef86001600160a01b031663d5f520766040518163ffffffff1660e01b815260040160206040518083038186803b15801561058d57600080fd5b73617dace069fbd41993491de211b4dfccdacbd3486001600160a01b0383161415610dc95773b5bdd2d9b3541fc8f581af37430d26527e59aef86001600160a01b031663d5f520766040518163ffffffff1660e01b815260040160206040518083038186803b15801561058d57600080fd5b73650a9ed18df873cad98c88dcac8170531cad23996001600160a01b0383161415610e3b57731df7324a3ad20526dfa02cc803ed2d97cac81f3b6001600160a01b031663d5f520766040518163ffffffff1660e01b815260040160206040518083038186803b15801561058d57600080fd5b7307c9a8f8264221906b7b8958951ce4753d39628b6001600160a01b0383161415610ead5773305d12b4d70529cd618da7399f5520701e5100416001600160a01b031663d5f520766040518163ffffffff1660e01b815260040160206040518083038186803b15801561058d57600080fd5b7363eb4c3dd0751f9be7070a01156513c227fa1ef66001600160a01b0383161415610f1f5773306309f9d105f34132db0bfb3ce3f5b0245cd3866001600160a01b031663d5f520766040518163ffffffff1660e01b815260040160206040518083038186803b15801561058d57600080fd5b73c6349eec31048787676b6297ba71721376a8ddcf6001600160a01b0383161415610f915773ac1a985e75c6a0b475b9c807ad0705a988be2d996001600160a01b031663d5f520766040518163ffffffff1660e01b815260040160206040518083038186803b15801561058d57600080fd5b733b945f9c0c8737e44f8e887d4f04b5b3a491ac4d6001600160a01b0383161415611003577382e17477726e8d9d2c237745ca9989631582ee986001600160a01b031663d5f520766040518163ffffffff1660e01b815260040160206040518083038186803b15801561058d57600080fd5b73f35343299a4f80dd5d917bbe5ddd54ebb820ebd46001600160a01b03831614156110755773cc88c15506251b62ccceeba193e100d6bbc9a30d6001600160a01b031663d5f520766040518163ffffffff1660e01b815260040160206040518083038186803b15801561058d57600080fd5b733b9e5ae72d068448bb96786989c0d86fbc0551d16001600160a01b03831614156110e75773306309f9d105f34132db0bfb3ce3f5b0245cd3866001600160a01b031663d5f520766040518163ffffffff1660e01b815260040160206040518083038186803b15801561058d57600080fd5b73b2d53be158cb8451dfc818bd969877038c1bdea16001600160a01b03831614156111595773ae55e3800f0a3feafdce535a8c0fab0ffdb90dee6001600160a01b031663d5f520766040518163ffffffff1660e01b815260040160206040518083038186803b15801561058d57600080fd5b73f6dbf7afe05b8bb6f198ec7e69333c98d3c4608c6001600160a01b03831614156111cb5773bb8d24a20c20625f86739824014c3cbaaab267006001600160a01b031663d5f520766040518163ffffffff1660e01b815260040160206040518083038186803b15801561058d57600080fd5b73b62fc1adffb2ab832041528c8178358338d85f766001600160a01b038316141561123d57739ed98fd1c29018b9342cb8f57a3073b9695f0c026001600160a01b031663d5f520766040518163ffffffff1660e01b815260040160206040518083038186803b15801561058d57600080fd5b739bc8d30d971c9e74298112803036c05db07d73e36001600160a01b03831614156112af577366beda757939f8e505b5eb883cd02c8d4a11bca26001600160a01b031663d5f520766040518163ffffffff1660e01b815260040160206040518083038186803b15801561058d57600080fd5b506000919050565b6000731147ccfb4aefc6e587a23b78724ef20ec6e474d46001600160a01b03831614156112f95750733fb49da4375ef9019f17990d04c6d5dad482d80a919050565b734c21541f95a00c03c75f38c71dc220bd27cbbed96001600160a01b0383161415611339575073c897cfee43a8d827f76d4226994d5ce5ebbe2571919050565b737e6332d18719a5463d3867a1a892359509589a3d6001600160a01b03831614156113795750731578ed833d986c1188d1a998aa5fecd418bef5da919050565b738bd660a764ca14155f3411a4526a028b6316cb3e6001600160a01b03831614156113b9575073f6f372dfaecc1431186598c304e91b79ce115766919050565b734f4f0d0dfd93513b3f4cb116fe9d0a005466f7256001600160a01b03831614156113f95750738b055ac1c4dd287e2a46d4a52d61fe76fb551bd0919050565b731df0250027fec876d8876d1ac7a392c9098f1a1e6001600160a01b0383161415611439575073e408ffa969707ce5d7aa3e5f8d44674fa4b26219919050565b73860ef3f83b6adfef757f98345c3b8ddcfca9d1526001600160a01b038316141561147957507308a3633aab8f3e436dea204288ee26fe094406b0919050565b73e3a2d16da142e6b190a5d9f7e0c07cc460b58a5f6001600160a01b03831614156114b9575073875f8ffcdded63b5d8cf54be4e4b82fe6c6e249c919050565b73bde07f1ca107ef319b0bb26ebf1d0a5b4c97ffc16001600160a01b03831614156114f95750731578ed833d986c1188d1a998aa5fecd418bef5da919050565b73e86181d6b672d78d33e83029ff3d0ef4a601b4c46001600160a01b03831614156115395750731578ed833d986c1188d1a998aa5fecd418bef5da919050565b73b7c561e2069acae2c4480111b1606790bb4e13fe6001600160a01b03831614156115795750731578ed833d986c1188d1a998aa5fecd418bef5da919050565b73526c013f8382b050d32d86e7090ac84de22eda4d6001600160a01b03831614156112af57507361c6e5ddacded540cd08066c08cbc096d22d91f4919050565b600080546001600160a01b038381166001600160a01b0319831681178455604051919092169283917f8be0079c531659141344cd1fd0a4f28419497f9722a3daafe3b4186f6b6457e09190a35050565b6001600160a01b038116811461051657600080fd5b60006020828403121561163057600080fd5b813561020981611609565b6001600160a01b0391909116815260200190565b6000806040838503121561166257600080fd5b823561166d81611609565b9150602083013561167d81611609565b809150509250929050565b60006020828403121561169a57600080fd5b815161020981611609565b6020808252818101527f4f776e61626c653a2063616c6c6572206973206e6f7420746865206f776e657260408201526060019056fea2646970667358221220c0ac96c7f48a68918e7d689e73ff0792db6f94354c2b8641f039b4f5ed22036c64736f6c63430008090033",
  "devdoc": {
    "kind": "dev",
    "methods": {
      "owner()": {
        "details": "Returns the address of the current owner."
      },
      "renounceOwnership()": {
        "details": "Leaves the contract without owner. It will not be possible to call `onlyOwner` functions anymore. Can only be called by the current owner. NOTE: Renouncing ownership will leave the contract without an owner, thereby removing any functionality that is only available to the owner."
      },
      "transferOwnership(address)": {
        "details": "Transfers ownership of the contract to a new account (`newOwner`). Can only be called by the current owner."
      }
    },
    "title": "KEEP stake owner resolver",
    "version": 1
  },
  "userdoc": {
    "kind": "user",
    "methods": {
      "resolveOwner(address)": {
        "notice": "Resolves KEEP stake owner for the provided operator address.         Reverts if could not resolve the owner."
      },
      "setGrantee(address,address)": {
        "notice": "Allows the Governance to set new operator-grantee pair.         This function should only be called for non-managed grants if         the snapshot does include this pair."
      },
      "setManagedGrant(address,address)": {
        "notice": "Allows the Governance to set new operator-managed grant pair.         This function should only be called for managed grants if         the snapshot does include this pair."
      }
    },
    "notice": "T network staking contract supports existing KEEP stakes by allowing         KEEP stakers to use their stakes in T network and weights them based         on KEEP<>T token ratio. KEEP stake owner is cached in T staking         contract and used to restrict access to all functions only owner or         operator should call. To cache KEEP staking contract in T staking         contract, it fitst needs to resolve the owner. Resolving liquid         KEEP stake owner is easy. Resolving token grant stake owner is         complicated and not possible to do on-chain from a contract external         to KEEP TokenStaking contract. Keep TokenStaking knows the grant ID         but does not expose it externally.         KeepStake contract addresses this problem by exposing         operator-owner mappings snapshotted off-chain based on events and         information publicly available from KEEP TokenStaking contract and         KEEP TokenGrant contract. Additionally, it gives the Governance         ability to add new mappings in case they are ever needed; in         practice, this will be needed only if someone decides to stake their         KEEP token grant in KEEP network after 2021-11-11 when the snapshot         was taken.         Operator-owner pairs were snapshotted 2021-11-11 in the following         way:         1. Fetch all TokenStaking events from KEEP staking contract.         2. Filter out undelegated operators.         3. Filter out canceled delegations.         4. Fetch grant stake information from KEEP TokenGrant for that            operator to determine if we are dealing with grant delegation.         5. Fetch grantee address from KEEP TokenGrant contract.         6. Check if we are dealing with ManagedGrant by looking for all            created ManagedGrants and comparing their address against grantee            address fetched from TokenGrant contract.",
    "version": 1
  },
  "storageLayout": {
    "storage": [
      {
        "astId": 1491,
        "contract": "contracts/staking/KeepStake.sol:KeepStake",
        "label": "_owner",
        "offset": 0,
        "slot": "0",
        "type": "t_address"
      },
      {
        "astId": 11750,
        "contract": "contracts/staking/KeepStake.sol:KeepStake",
        "label": "operatorToManagedGrant",
        "offset": 0,
        "slot": "1",
        "type": "t_mapping(t_address,t_address)"
      },
      {
        "astId": 11754,
        "contract": "contracts/staking/KeepStake.sol:KeepStake",
        "label": "operatorToGrantee",
        "offset": 0,
        "slot": "2",
        "type": "t_mapping(t_address,t_address)"
      }
    ],
    "types": {
      "t_address": {
        "encoding": "inplace",
        "label": "address",
        "numberOfBytes": "20"
      },
      "t_mapping(t_address,t_address)": {
        "encoding": "mapping",
        "key": "t_address",
        "label": "mapping(address => address)",
        "numberOfBytes": "32",
        "value": "t_address"
      }
    }
  }
}