{
  "address": "0xd101f2B25bCBF992BdF55dB67c104FE7646F5447",
  "abi": [
    {
      "inputs": [
        {
          "internalType": "contract T",
          "name": "_token",
          "type": "address"
        },
        {
          "internalType": "contract IVotesHistory",
          "name": "_staking",
          "type": "address"
        },
        {
          "internalType": "contract TimelockController",
          "name": "_timelock",
          "type": "address"
        },
        {
          "internalType": "address",
          "name": "vetoer",
          "type": "address"
        }
      ],
      "stateMutability": "nonpayable",
      "type": "constructor"
    },
    {
      "anonymous": false,
      "inputs": [
        {
          "indexed": false,
          "internalType": "uint64",
          "name": "oldVoteExtension",
          "type": "uint64"
        },
        {
          "indexed": false,
          "internalType": "uint64",
          "name": "newVoteExtension",
          "type": "uint64"
        }
      ],
      "name": "LateQuorumVoteExtensionSet",
      "type": "event"
    },
    {
      "anonymous": false,
      "inputs": [
        {
          "indexed": false,
          "internalType": "uint256",
          "name": "proposalId",
          "type": "uint256"
        }
      ],
      "name": "ProposalCanceled",
      "type": "event"
    },
    {
      "anonymous": false,
      "inputs": [
        {
          "indexed": false,
          "internalType": "uint256",
          "name": "proposalId",
          "type": "uint256"
        },
        {
          "indexed": false,
          "internalType": "address",
          "name": "proposer",
          "type": "address"
        },
        {
          "indexed": false,
          "internalType": "address[]",
          "name": "targets",
          "type": "address[]"
        },
        {
          "indexed": false,
          "internalType": "uint256[]",
          "name": "values",
          "type": "uint256[]"
        },
        {
          "indexed": false,
          "internalType": "string[]",
          "name": "signatures",
          "type": "string[]"
        },
        {
          "indexed": false,
          "internalType": "bytes[]",
          "name": "calldatas",
          "type": "bytes[]"
        },
        {
          "indexed": false,
          "internalType": "uint256",
          "name": "startBlock",
          "type": "uint256"
        },
        {
          "indexed": false,
          "internalType": "uint256",
          "name": "endBlock",
          "type": "uint256"
        },
        {
          "indexed": false,
          "internalType": "string",
          "name": "description",
          "type": "string"
        }
      ],
      "name": "ProposalCreated",
      "type": "event"
    },
    {
      "anonymous": false,
      "inputs": [
        {
          "indexed": false,
          "internalType": "uint256",
          "name": "proposalId",
          "type": "uint256"
        }
      ],
      "name": "ProposalExecuted",
      "type": "event"
    },
    {
      "anonymous": false,
      "inputs": [
        {
          "indexed": true,
          "internalType": "uint256",
          "name": "proposalId",
          "type": "uint256"
        },
        {
          "indexed": false,
          "internalType": "uint64",
          "name": "extendedDeadline",
          "type": "uint64"
        }
      ],
      "name": "ProposalExtended",
      "type": "event"
    },
    {
      "anonymous": false,
      "inputs": [
        {
          "indexed": false,
          "internalType": "uint256",
          "name": "proposalId",
          "type": "uint256"
        },
        {
          "indexed": false,
          "internalType": "uint256",
          "name": "eta",
          "type": "uint256"
        }
      ],
      "name": "ProposalQueued",
      "type": "event"
    },
    {
      "anonymous": false,
      "inputs": [
        {
          "indexed": false,
          "internalType": "uint256",
          "name": "oldThresholdNumerator",
          "type": "uint256"
        },
        {
          "indexed": false,
          "internalType": "uint256",
          "name": "newThresholdNumerator",
          "type": "uint256"
        }
      ],
      "name": "ProposalThresholdNumeratorUpdated",
      "type": "event"
    },
    {
      "anonymous": false,
      "inputs": [
        {
          "indexed": false,
          "internalType": "uint256",
          "name": "oldQuorumNumerator",
          "type": "uint256"
        },
        {
          "indexed": false,
          "internalType": "uint256",
          "name": "newQuorumNumerator",
          "type": "uint256"
        }
      ],
      "name": "QuorumNumeratorUpdated",
      "type": "event"
    },
    {
      "anonymous": false,
      "inputs": [
        {
          "indexed": true,
          "internalType": "bytes32",
          "name": "role",
          "type": "bytes32"
        },
        {
          "indexed": true,
          "internalType": "bytes32",
          "name": "previousAdminRole",
          "type": "bytes32"
        },
        {
          "indexed": true,
          "internalType": "bytes32",
          "name": "newAdminRole",
          "type": "bytes32"
        }
      ],
      "name": "RoleAdminChanged",
      "type": "event"
    },
    {
      "anonymous": false,
      "inputs": [
        {
          "indexed": true,
          "internalType": "bytes32",
          "name": "role",
          "type": "bytes32"
        },
        {
          "indexed": true,
          "internalType": "address",
          "name": "account",
          "type": "address"
        },
        {
          "indexed": true,
          "internalType": "address",
          "name": "sender",
          "type": "address"
        }
      ],
      "name": "RoleGranted",
      "type": "event"
    },
    {
      "anonymous": false,
      "inputs": [
        {
          "indexed": true,
          "internalType": "bytes32",
          "name": "role",
          "type": "bytes32"
        },
        {
          "indexed": true,
          "internalType": "address",
          "name": "account",
          "type": "address"
        },
        {
          "indexed": true,
          "internalType": "address",
          "name": "sender",
          "type": "address"
        }
      ],
      "name": "RoleRevoked",
      "type": "event"
    },
    {
      "anonymous": false,
      "inputs": [
        {
          "indexed": false,
          "internalType": "address",
          "name": "oldTimelock",
          "type": "address"
        },
        {
          "indexed": false,
          "internalType": "address",
          "name": "newTimelock",
          "type": "address"
        }
      ],
      "name": "TimelockChange",
      "type": "event"
    },
    {
      "anonymous": false,
      "inputs": [
        {
          "indexed": true,
          "internalType": "address",
          "name": "voter",
          "type": "address"
        },
        {
          "indexed": false,
          "internalType": "uint256",
          "name": "proposalId",
          "type": "uint256"
        },
        {
          "indexed": false,
          "internalType": "uint8",
          "name": "support",
          "type": "uint8"
        },
        {
          "indexed": false,
          "internalType": "uint256",
          "name": "weight",
          "type": "uint256"
        },
        {
          "indexed": false,
          "internalType": "string",
          "name": "reason",
          "type": "string"
        }
      ],
      "name": "VoteCast",
      "type": "event"
    },
    {
      "anonymous": false,
      "inputs": [
        {
          "indexed": false,
          "internalType": "uint256",
          "name": "oldVotingDelay",
          "type": "uint256"
        },
        {
          "indexed": false,
          "internalType": "uint256",
          "name": "newVotingDelay",
          "type": "uint256"
        }
      ],
      "name": "VotingDelaySet",
      "type": "event"
    },
    {
      "anonymous": false,
      "inputs": [
        {
          "indexed": false,
          "internalType": "uint256",
          "name": "oldVotingPeriod",
          "type": "uint256"
        },
        {
          "indexed": false,
          "internalType": "uint256",
          "name": "newVotingPeriod",
          "type": "uint256"
        }
      ],
      "name": "VotingPeriodSet",
      "type": "event"
    },
    {
      "inputs": [],
      "name": "BALLOT_TYPEHASH",
      "outputs": [
        {
          "internalType": "bytes32",
          "name": "",
          "type": "bytes32"
        }
      ],
      "stateMutability": "view",
      "type": "function"
    },
    {
      "inputs": [],
      "name": "COUNTING_MODE",
      "outputs": [
        {
          "internalType": "string",
          "name": "",
          "type": "string"
        }
      ],
      "stateMutability": "pure",
      "type": "function"
    },
    {
      "inputs": [],
      "name": "DEFAULT_ADMIN_ROLE",
      "outputs": [
        {
          "internalType": "bytes32",
          "name": "",
          "type": "bytes32"
        }
      ],
      "stateMutability": "view",
      "type": "function"
    },
    {
      "inputs": [],
      "name": "FRACTION_DENOMINATOR",
      "outputs": [
        {
          "internalType": "uint256",
          "name": "",
          "type": "uint256"
        }
      ],
      "stateMutability": "view",
      "type": "function"
    },
    {
      "inputs": [],
      "name": "VETO_POWER",
      "outputs": [
        {
          "internalType": "bytes32",
          "name": "",
          "type": "bytes32"
        }
      ],
      "stateMutability": "view",
      "type": "function"
    },
    {
      "inputs": [
        {
          "internalType": "address[]",
          "name": "targets",
          "type": "address[]"
        },
        {
          "internalType": "uint256[]",
          "name": "values",
          "type": "uint256[]"
        },
        {
          "internalType": "bytes[]",
          "name": "calldatas",
          "type": "bytes[]"
        },
        {
          "internalType": "bytes32",
          "name": "descriptionHash",
          "type": "bytes32"
        }
      ],
      "name": "cancel",
      "outputs": [
        {
          "internalType": "uint256",
          "name": "",
          "type": "uint256"
        }
      ],
      "stateMutability": "nonpayable",
      "type": "function"
    },
    {
      "inputs": [
        {
          "internalType": "uint256",
          "name": "proposalId",
          "type": "uint256"
        },
        {
          "internalType": "uint8",
          "name": "support",
          "type": "uint8"
        }
      ],
      "name": "castVote",
      "outputs": [
        {
          "internalType": "uint256",
          "name": "",
          "type": "uint256"
        }
      ],
      "stateMutability": "nonpayable",
      "type": "function"
    },
    {
      "inputs": [
        {
          "internalType": "uint256",
          "name": "proposalId",
          "type": "uint256"
        },
        {
          "internalType": "uint8",
          "name": "support",
          "type": "uint8"
        },
        {
          "internalType": "uint8",
          "name": "v",
          "type": "uint8"
        },
        {
          "internalType": "bytes32",
          "name": "r",
          "type": "bytes32"
        },
        {
          "internalType": "bytes32",
          "name": "s",
          "type": "bytes32"
        }
      ],
      "name": "castVoteBySig",
      "outputs": [
        {
          "internalType": "uint256",
          "name": "",
          "type": "uint256"
        }
      ],
      "stateMutability": "nonpayable",
      "type": "function"
    },
    {
      "inputs": [
        {
          "internalType": "uint256",
          "name": "proposalId",
          "type": "uint256"
        },
        {
          "internalType": "uint8",
          "name": "support",
          "type": "uint8"
        },
        {
          "internalType": "string",
          "name": "reason",
          "type": "string"
        }
      ],
      "name": "castVoteWithReason",
      "outputs": [
        {
          "internalType": "uint256",
          "name": "",
          "type": "uint256"
        }
      ],
      "stateMutability": "nonpayable",
      "type": "function"
    },
    {
      "inputs": [
        {
          "internalType": "address[]",
          "name": "targets",
          "type": "address[]"
        },
        {
          "internalType": "uint256[]",
          "name": "values",
          "type": "uint256[]"
        },
        {
          "internalType": "bytes[]",
          "name": "calldatas",
          "type": "bytes[]"
        },
        {
          "internalType": "bytes32",
          "name": "descriptionHash",
          "type": "bytes32"
        }
      ],
      "name": "execute",
      "outputs": [
        {
          "internalType": "uint256",
          "name": "",
          "type": "uint256"
        }
      ],
      "stateMutability": "payable",
      "type": "function"
    },
    {
      "inputs": [
        {
          "internalType": "bytes32",
          "name": "role",
          "type": "bytes32"
        }
      ],
      "name": "getRoleAdmin",
      "outputs": [
        {
          "internalType": "bytes32",
          "name": "",
          "type": "bytes32"
        }
      ],
      "stateMutability": "view",
      "type": "function"
    },
    {
      "inputs": [
        {
          "internalType": "address",
          "name": "account",
          "type": "address"
        },
        {
          "internalType": "uint256",
          "name": "blockNumber",
          "type": "uint256"
        }
      ],
      "name": "getVotes",
      "outputs": [
        {
          "internalType": "uint256",
          "name": "",
          "type": "uint256"
        }
      ],
      "stateMutability": "view",
      "type": "function"
    },
    {
      "inputs": [
        {
          "internalType": "bytes32",
          "name": "role",
          "type": "bytes32"
        },
        {
          "internalType": "address",
          "name": "account",
          "type": "address"
        }
      ],
      "name": "grantRole",
      "outputs": [],
      "stateMutability": "nonpayable",
      "type": "function"
    },
    {
      "inputs": [
        {
          "internalType": "bytes32",
          "name": "role",
          "type": "bytes32"
        },
        {
          "internalType": "address",
          "name": "account",
          "type": "address"
        }
      ],
      "name": "hasRole",
      "outputs": [
        {
          "internalType": "bool",
          "name": "",
          "type": "bool"
        }
      ],
      "stateMutability": "view",
      "type": "function"
    },
    {
      "inputs": [
        {
          "internalType": "uint256",
          "name": "proposalId",
          "type": "uint256"
        },
        {
          "internalType": "address",
          "name": "account",
          "type": "address"
        }
      ],
      "name": "hasVoted",
      "outputs": [
        {
          "internalType": "bool",
          "name": "",
          "type": "bool"
        }
      ],
      "stateMutability": "view",
      "type": "function"
    },
    {
      "inputs": [
        {
          "internalType": "address[]",
          "name": "targets",
          "type": "address[]"
        },
        {
          "internalType": "uint256[]",
          "name": "values",
          "type": "uint256[]"
        },
        {
          "internalType": "bytes[]",
          "name": "calldatas",
          "type": "bytes[]"
        },
        {
          "internalType": "bytes32",
          "name": "descriptionHash",
          "type": "bytes32"
        }
      ],
      "name": "hashProposal",
      "outputs": [
        {
          "internalType": "uint256",
          "name": "",
          "type": "uint256"
        }
      ],
      "stateMutability": "pure",
      "type": "function"
    },
    {
      "inputs": [],
      "name": "lateQuorumVoteExtension",
      "outputs": [
        {
          "internalType": "uint64",
          "name": "",
          "type": "uint64"
        }
      ],
      "stateMutability": "view",
      "type": "function"
    },
    {
      "inputs": [],
      "name": "name",
      "outputs": [
        {
          "internalType": "string",
          "name": "",
          "type": "string"
        }
      ],
      "stateMutability": "view",
      "type": "function"
    },
    {
      "inputs": [
        {
          "internalType": "uint256",
          "name": "proposalId",
          "type": "uint256"
        }
      ],
      "name": "proposalDeadline",
      "outputs": [
        {
          "internalType": "uint256",
          "name": "",
          "type": "uint256"
        }
      ],
      "stateMutability": "view",
      "type": "function"
    },
    {
      "inputs": [
        {
          "internalType": "uint256",
          "name": "proposalId",
          "type": "uint256"
        }
      ],
      "name": "proposalEta",
      "outputs": [
        {
          "internalType": "uint256",
          "name": "",
          "type": "uint256"
        }
      ],
      "stateMutability": "view",
      "type": "function"
    },
    {
      "inputs": [
        {
          "internalType": "uint256",
          "name": "proposalId",
          "type": "uint256"
        }
      ],
      "name": "proposalSnapshot",
      "outputs": [
        {
          "internalType": "uint256",
          "name": "",
          "type": "uint256"
        }
      ],
      "stateMutability": "view",
      "type": "function"
    },
    {
      "inputs": [
        {
          "internalType": "uint256",
          "name": "blockNumber",
          "type": "uint256"
        }
      ],
      "name": "proposalThreshold",
      "outputs": [
        {
          "internalType": "uint256",
          "name": "",
          "type": "uint256"
        }
      ],
      "stateMutability": "view",
      "type": "function"
    },
    {
      "inputs": [],
      "name": "proposalThreshold",
      "outputs": [
        {
          "internalType": "uint256",
          "name": "",
          "type": "uint256"
        }
      ],
      "stateMutability": "view",
      "type": "function"
    },
    {
      "inputs": [],
      "name": "proposalThresholdNumerator",
      "outputs": [
        {
          "internalType": "uint256",
          "name": "",
          "type": "uint256"
        }
      ],
      "stateMutability": "view",
      "type": "function"
    },
    {
      "inputs": [
        {
          "internalType": "uint256",
          "name": "proposalId",
          "type": "uint256"
        }
      ],
      "name": "proposalVotes",
      "outputs": [
        {
          "internalType": "uint256",
          "name": "againstVotes",
          "type": "uint256"
        },
        {
          "internalType": "uint256",
          "name": "forVotes",
          "type": "uint256"
        },
        {
          "internalType": "uint256",
          "name": "abstainVotes",
          "type": "uint256"
        }
      ],
      "stateMutability": "view",
      "type": "function"
    },
    {
      "inputs": [
        {
          "internalType": "address[]",
          "name": "targets",
          "type": "address[]"
        },
        {
          "internalType": "uint256[]",
          "name": "values",
          "type": "uint256[]"
        },
        {
          "internalType": "bytes[]",
          "name": "calldatas",
          "type": "bytes[]"
        },
        {
          "internalType": "string",
          "name": "description",
          "type": "string"
        }
      ],
      "name": "propose",
      "outputs": [
        {
          "internalType": "uint256",
          "name": "",
          "type": "uint256"
        }
      ],
      "stateMutability": "nonpayable",
      "type": "function"
    },
    {
      "inputs": [
        {
          "internalType": "address[]",
          "name": "targets",
          "type": "address[]"
        },
        {
          "internalType": "uint256[]",
          "name": "values",
          "type": "uint256[]"
        },
        {
          "internalType": "bytes[]",
          "name": "calldatas",
          "type": "bytes[]"
        },
        {
          "internalType": "bytes32",
          "name": "descriptionHash",
          "type": "bytes32"
        }
      ],
      "name": "queue",
      "outputs": [
        {
          "internalType": "uint256",
          "name": "",
          "type": "uint256"
        }
      ],
      "stateMutability": "nonpayable",
      "type": "function"
    },
    {
      "inputs": [
        {
          "internalType": "uint256",
          "name": "blockNumber",
          "type": "uint256"
        }
      ],
      "name": "quorum",
      "outputs": [
        {
          "internalType": "uint256",
          "name": "",
          "type": "uint256"
        }
      ],
      "stateMutability": "view",
      "type": "function"
    },
    {
      "inputs": [],
      "name": "quorumNumerator",
      "outputs": [
        {
          "internalType": "uint256",
          "name": "",
          "type": "uint256"
        }
      ],
      "stateMutability": "view",
      "type": "function"
    },
    {
      "inputs": [
        {
          "internalType": "address",
          "name": "target",
          "type": "address"
        },
        {
          "internalType": "uint256",
          "name": "value",
          "type": "uint256"
        },
        {
          "internalType": "bytes",
          "name": "data",
          "type": "bytes"
        }
      ],
      "name": "relay",
      "outputs": [],
      "stateMutability": "nonpayable",
      "type": "function"
    },
    {
      "inputs": [
        {
          "internalType": "bytes32",
          "name": "role",
          "type": "bytes32"
        },
        {
          "internalType": "address",
          "name": "account",
          "type": "address"
        }
      ],
      "name": "renounceRole",
      "outputs": [],
      "stateMutability": "nonpayable",
      "type": "function"
    },
    {
      "inputs": [
        {
          "internalType": "bytes32",
          "name": "role",
          "type": "bytes32"
        },
        {
          "internalType": "address",
          "name": "account",
          "type": "address"
        }
      ],
      "name": "revokeRole",
      "outputs": [],
      "stateMutability": "nonpayable",
      "type": "function"
    },
    {
      "inputs": [
        {
          "internalType": "uint64",
          "name": "newVoteExtension",
          "type": "uint64"
        }
      ],
      "name": "setLateQuorumVoteExtension",
      "outputs": [],
      "stateMutability": "nonpayable",
      "type": "function"
    },
    {
      "inputs": [
        {
          "internalType": "uint256",
          "name": "newVotingDelay",
          "type": "uint256"
        }
      ],
      "name": "setVotingDelay",
      "outputs": [],
      "stateMutability": "nonpayable",
      "type": "function"
    },
    {
      "inputs": [
        {
          "internalType": "uint256",
          "name": "newVotingPeriod",
          "type": "uint256"
        }
      ],
      "name": "setVotingPeriod",
      "outputs": [],
      "stateMutability": "nonpayable",
      "type": "function"
    },
    {
      "inputs": [],
      "name": "staking",
      "outputs": [
        {
          "internalType": "contract IVotesHistory",
          "name": "",
          "type": "address"
        }
      ],
      "stateMutability": "view",
      "type": "function"
    },
    {
      "inputs": [
        {
          "internalType": "uint256",
          "name": "proposalId",
          "type": "uint256"
        }
      ],
      "name": "state",
      "outputs": [
        {
          "internalType": "enum IGovernor.ProposalState",
          "name": "",
          "type": "uint8"
        }
      ],
      "stateMutability": "view",
      "type": "function"
    },
    {
      "inputs": [
        {
          "internalType": "bytes4",
          "name": "interfaceId",
          "type": "bytes4"
        }
      ],
      "name": "supportsInterface",
      "outputs": [
        {
          "internalType": "bool",
          "name": "",
          "type": "bool"
        }
      ],
      "stateMutability": "view",
      "type": "function"
    },
    {
      "inputs": [],
      "name": "timelock",
      "outputs": [
        {
          "internalType": "address",
          "name": "",
          "type": "address"
        }
      ],
      "stateMutability": "view",
      "type": "function"
    },
    {
      "inputs": [],
      "name": "token",
      "outputs": [
        {
          "internalType": "contract IVotesHistory",
          "name": "",
          "type": "address"
        }
      ],
      "stateMutability": "view",
      "type": "function"
    },
    {
      "inputs": [
        {
          "internalType": "uint256",
          "name": "newNumerator",
          "type": "uint256"
        }
      ],
      "name": "updateProposalThresholdNumerator",
      "outputs": [],
      "stateMutability": "nonpayable",
      "type": "function"
    },
    {
      "inputs": [
        {
          "internalType": "uint256",
          "name": "newQuorumNumerator",
          "type": "uint256"
        }
      ],
      "name": "updateQuorumNumerator",
      "outputs": [],
      "stateMutability": "nonpayable",
      "type": "function"
    },
    {
      "inputs": [
        {
          "internalType": "contract TimelockController",
          "name": "newTimelock",
          "type": "address"
        }
      ],
      "name": "updateTimelock",
      "outputs": [],
      "stateMutability": "nonpayable",
      "type": "function"
    },
    {
      "inputs": [],
      "name": "version",
      "outputs": [
        {
          "internalType": "string",
          "name": "",
          "type": "string"
        }
      ],
      "stateMutability": "view",
      "type": "function"
    },
    {
      "inputs": [],
      "name": "votingDelay",
      "outputs": [
        {
          "internalType": "uint256",
          "name": "",
          "type": "uint256"
        }
      ],
      "stateMutability": "view",
      "type": "function"
    },
    {
      "inputs": [],
      "name": "votingPeriod",
      "outputs": [
        {
          "internalType": "uint256",
          "name": "",
          "type": "uint256"
        }
      ],
      "stateMutability": "view",
      "type": "function"
    },
    {
      "stateMutability": "payable",
      "type": "receive"
    }
  ],
  "transactionHash": "0x4f6c675d51b59a313b2151d5eb714c7df9bca079ad629718dcd8c7ddff1462fb",
  "args": [
    "0xCdF7028ceAB81fA0C6971208e83fa7872994beE5",
    "0x01B67b1194C75264d06F808A921228a95C765dd7",
    "0x87F005317692D05BAA4193AB0c961c69e175f45f",
    "0x9F6e831c8F8939DC0C830C6e492e7cEf4f9C2F5f"
  ],
  "numDeployments": 1,
  "solcInputHash": "9a2f45de388a8a02f9e065c8da7e4649",
  "bytecode": "0x6101806040523480156200001257600080fd5b506040516200410538038062004105833981016040819052620000359162000680565b83838383609660196200004d600d6202a300620006e8565b6001600160401b031662000066600d620d2f00620006e8565b6001600160401b03166200007f600d6202a300620006e8565b86818a8a888888886040518060400160405280601381526020017f546f6b656e686f6c646572476f7665726e6f720000000000000000000000000081525080620000ce6200021f60201b60201c565b815160208084019190912082518383012060e08290526101008190524660a0818152604080517f8b73c3c69bb8fe3d512ecc4cf759cc79239f7b179b0ffacaa9a75d522b39400f81880181905281830187905260608201869052608082019490945230818401528151808203909301835260c00190528051940193909320919290916080523060c0526101205250508251620001749250600191506020840190620005c1565b50620001829050846200023a565b6200018d83620002d8565b62000198826200036b565b620001a381620003ac565b5050506001600160a01b0392831661014052501661016052620001c6816200043f565b50620001d281620004a8565b50620001ff7f65784a4b4efdf70060d396b05be05b4852e8b22ae249d76915bea0da3f992c648762000511565b6200020c60008862000511565b505050505050505050505050506200075a565b6040805180820190915260018152603160f81b602082015290565b612710811115620002925760405162461bcd60e51b815260206004820152601d60248201527f71756f72756d4e756d657261746f72203e2044656e6f6d696e61746f7200000060448201526064015b60405180910390fd5b600480549082905560408051828152602081018490527f0553476bf02ef2726e8ce5ced78d63e26e602e4a2257b1f559418e24b463399791015b60405180910390a15050565b6127108111156200032c5760405162461bcd60e51b815260206004820152601f60248201527f70726f706f73616c4e756d657261746f72203e2044656e6f6d696e61746f7200604482015260640162000289565b600580549082905560408051828152602081018490527f47036a693fe84b7d8f31616a15f6b3e26b080688ffd77d9425e3a0283a3df2619101620002cc565b60065460408051918252602082018390527fc565b045403dc03c2eea82b81a0465edad9e2e7fc4d97e11421c209da93d7a93910160405180910390a1600655565b60008111620003fe5760405162461bcd60e51b815260206004820152601560248201527f566f74696e6720706572696f6420746f6f206c6f770000000000000000000000604482015260640162000289565b60075460408051918252602082018390527f7e3f7f0708a84de9203036abaa450dccc85ad5ff52f78c170f3edb55cf5e8828910160405180910390a1600755565b600854604080516001600160401b03928316815291831660208301527f7ca4ac117ed3cdce75c1161d8207c440389b1a15d69d096831664657c07dafc2910160405180910390a1600880546001600160401b0319166001600160401b0392909216919091179055565b600a54604080516001600160a01b03928316815291831660208301527f08f74ea46ef7894f65eabfb5e6e695de773a000b47c529ab559178069b226401910160405180910390a1600a80546001600160a01b0319166001600160a01b0392909216919091179055565b6200051d828262000521565b5050565b6000828152602081815260408083206001600160a01b038516845290915290205460ff166200051d576000828152602081815260408083206001600160a01b03851684529091529020805460ff191660011790556200057d3390565b6001600160a01b0316816001600160a01b0316837f2f8788117e7eff1d82e926ec794901d17c78024a50270940304540a733656f0d60405160405180910390a45050565b828054620005cf906200071d565b90600052602060002090601f016020900481019282620005f357600085556200063e565b82601f106200060e57805160ff19168380011785556200063e565b828001600101855582156200063e579182015b828111156200063e57825182559160200191906001019062000621565b506200064c92915062000650565b5090565b5b808211156200064c576000815560010162000651565b6001600160a01b03811681146200067d57600080fd5b50565b600080600080608085870312156200069757600080fd5b8451620006a48162000667565b6020860151909450620006b78162000667565b6040860151909350620006ca8162000667565b6060860151909250620006dd8162000667565b939692955090935050565b60006001600160401b03838116806200071157634e487b7160e01b600052601260045260246000fd5b92169190910492915050565b600181811c908216806200073257607f821691505b602082108114156200075457634e487b7160e01b600052602260045260246000fd5b50919050565b60805160a05160c05160e05161010051610120516101405161016051613930620007d56000396000818161049d0152611cc401526000818161087d015281816116740152611c1901526000612044015260006120930152600061206e01526000611fc701526000611ff10152600061201b01526139306000f3fe6080604052600436106102115760003560e01c806301ffc9a71461023957806302a251a31461026e57806306f3f9e61461028d57806306fdde03146102ad578063160cbed7146102cf578063248a9ca3146102ef5780632656227d1461030f5780632d63f693146103225780632f2ff15d14610342578063327a71e71461036257806332b8113e1461037857806336568abe146103a05780633932abb1146103c05780633bccf4fd146103d55780633e4f49e6146103f55780634385963214610422578063452115d61461046b5780634cf088d91461048b578063544ffc9c146104d757806354fd4d501461052c57806356781388146105565780635d6434931461057657806370b0f6601461058c5780637629a4ac146105ac5780637b3c71d3146105cc5780637d5e81e2146105ec5780638834987d1461060c57806391d148541461062e578063a217fddf1461064e578063a7713a7014610663578063a890c91014610679578063ab58fb8e14610699578063b58131b0146106b9578063c01f9e37146106ce578063c28bc2fa146106ee578063c59057e41461070e578063d07f91e91461072e578063d33219b41461074e578063d547741f14610763578063dd4e2ba514610783578063deaaa7cc146107c9578063e0cf1f9b146107eb578063ea0217cf1461080b578063eb9019d41461082b578063f8ce560a1461084b578063fc0c546a1461086b57600080fd5b36610234573061021f61089f565b6001600160a01b03161461023257600080fd5b005b600080fd5b34801561024557600080fd5b50610259610254366004612c50565b6108ae565b60405190151581526020015b60405180910390f35b34801561027a57600080fd5b506007545b604051908152602001610265565b34801561029957600080fd5b506102326102a8366004612c7a565b6108bf565b3480156102b957600080fd5b506102c261090c565b6040516102659190612cef565b3480156102db57600080fd5b5061027f6102ea366004612f3a565b61099e565b3480156102fb57600080fd5b5061027f61030a366004612c7a565b610bba565b61027f61031d366004612f3a565b610bcf565b34801561032e57600080fd5b5061027f61033d366004612c7a565b610ca7565b34801561034e57600080fd5b5061023261035d366004612fc9565b610cde565b34801561036e57600080fd5b5061027f60055481565b34801561038457600080fd5b506008546040516001600160401b039091168152602001610265565b3480156103ac57600080fd5b506102326103bb366004612fc9565b610d00565b3480156103cc57600080fd5b5060065461027f565b3480156103e157600080fd5b5061027f6103f036600461300f565b610d7e565b34801561040157600080fd5b50610415610410366004612c7a565b610e00565b6040516102659190613073565b34801561042e57600080fd5b5061025961043d366004612fc9565b60008281526003602081815260408084206001600160a01b0386168552909201905290205460ff1692915050565b34801561047757600080fd5b5061027f610486366004612f3a565b610e0b565b34801561049757600080fd5b506104bf7f000000000000000000000000000000000000000000000000000000000000000081565b6040516001600160a01b039091168152602001610265565b3480156104e357600080fd5b506105116104f2366004612c7a565b6000908152600360205260409020805460018201546002909201549092565b60408051938452602084019290925290820152606001610265565b34801561053857600080fd5b506040805180820190915260018152603160f81b60208201526102c2565b34801561056257600080fd5b5061027f61057136600461309b565b610e3c565b34801561058257600080fd5b5061027f61271081565b34801561059857600080fd5b506102326105a7366004612c7a565b610e65565b3480156105b857600080fd5b5061027f6105c7366004612c7a565b610ea6565b3480156105d857600080fd5b5061027f6105e736600461310f565b610ecb565b3480156105f857600080fd5b5061027f610607366004613168565b610f13565b34801561061857600080fd5b5061027f6000805160206138b283398151915281565b34801561063a57600080fd5b50610259610649366004612fc9565b610f2a565b34801561065a57600080fd5b5061027f600081565b34801561066f57600080fd5b5061027f60045481565b34801561068557600080fd5b50610232610694366004613228565b610f53565b3480156106a557600080fd5b5061027f6106b4366004612c7a565b610f94565b3480156106c557600080fd5b5061027f61103e565b3480156106da57600080fd5b5061027f6106e9366004612c7a565b611048565b3480156106fa57600080fd5b50610232610709366004613245565b611053565b34801561071a57600080fd5b5061027f610729366004612f3a565b6110d4565b34801561073a57600080fd5b50610232610749366004613288565b61110e565b34801561075a57600080fd5b506104bf61114f565b34801561076f57600080fd5b5061023261077e366004612fc9565b61115e565b34801561078f57600080fd5b506040805180820190915260208082527f737570706f72743d627261766f2671756f72756d3d666f722c6162737461696e908201526102c2565b3480156107d557600080fd5b5061027f60008051602061389283398151915281565b3480156107f757600080fd5b50610232610806366004612c7a565b61117b565b34801561081757600080fd5b50610232610826366004612c7a565b6111bc565b34801561083757600080fd5b5061027f6108463660046132b1565b6111fd565b34801561085757600080fd5b5061027f610866366004612c7a565b611209565b34801561087757600080fd5b506104bf7f000000000000000000000000000000000000000000000000000000000000000081565b60006108a961114f565b905090565b60006108b982611214565b92915050565b6108c761089f565b6001600160a01b0316336001600160a01b0316146109005760405162461bcd60e51b81526004016108f7906132dd565b60405180910390fd5b61090981611239565b50565b60606001805461091b9061330f565b80601f01602080910402602001604051908101604052809291908181526020018280546109479061330f565b80156109945780601f1061096957610100808354040283529160200191610994565b820191906000526020600020905b81548152906001019060200180831161097757829003601f168201915b5050505050905090565b6000806109ad868686866110d4565b905060046109ba82610e00565b60078111156109cb576109cb61305d565b146109e85760405162461bcd60e51b81526004016108f79061334a565b600a546040805163793d064960e11b815290516000926001600160a01b03169163f27a0c92916004808301926020929190829003018186803b158015610a2d57600080fd5b505afa158015610a41573d6000803e3d6000fd5b505050506040513d601f19601f82011682018060405250810190610a65919061338b565b600a5460405163b1c5f42760e01b81529192506001600160a01b03169063b1c5f42790610a9f908a908a908a906000908b9060040161346d565b60206040518083038186803b158015610ab757600080fd5b505afa158015610acb573d6000803e3d6000fd5b505050506040513d601f19601f82011682018060405250810190610aef919061338b565b6000838152600b602052604080822092909255600a5491516308f2a0bb60e41b81526001600160a01b0390921691638f2a0bb091610b3a918b918b918b91908b9089906004016134bb565b600060405180830381600087803b158015610b5457600080fd5b505af1158015610b68573d6000803e3d6000fd5b505050507f9a2e42fd6722813d69113e7d0079d3d940171428df7373df9c7f7617cfda2892828242610b9a9190613529565b604051610ba8929190613541565b60405180910390a15095945050505050565b60009081526020819052604090206001015490565b600080610bde868686866110d4565b90506000610beb82610e00565b90506004816007811115610c0157610c0161305d565b1480610c1e57506005816007811115610c1c57610c1c61305d565b145b610c3a5760405162461bcd60e51b81526004016108f79061334a565b60008281526002602081905260409182902001805460ff19166001179055517f712ae1383f79ac853f8d882153778e0260ef8f03b504e2866e0593e04d2b291f90610c889084815260200190565b60405180910390a1610c9d82888888886112d1565b5095945050505050565b60008181526002602090815260408083208151928301909152546001600160401b0316908190525b6001600160401b031692915050565b610ce782610bba565b610cf181336112de565b610cfb8383611342565b505050565b6001600160a01b0381163314610d705760405162461bcd60e51b815260206004820152602f60248201527f416363657373436f6e74726f6c3a2063616e206f6e6c792072656e6f756e636560448201526e103937b632b9903337b91039b2b63360891b60648201526084016108f7565b610d7a82826113c6565b5050565b60408051600080516020613892833981519152602082015290810186905260ff851660608201526000908190610dd890610dd0906080016040516020818303038152906040528051906020012061142b565b868686611479565b9050610df587828860405180602001604052806000815250611497565b979650505050505050565b60006108b9826114a5565b60006000805160206138b2833981519152610e2681336112de565b610e328686868661160d565b9695505050505050565b600080339050610e5d84828560405180602001604052806000815250611497565b949350505050565b610e6d61089f565b6001600160a01b0316336001600160a01b031614610e9d5760405162461bcd60e51b81526004016108f7906132dd565b6109098161161b565b6000612710600554610eb78461165b565b610ec1919061354f565b6108b9919061356e565b600080339050610e3286828787878080601f01602080910402602001604051908101604052809392919081815260200183838082843760009201919091525061149792505050565b6000610f2185858585611705565b95945050505050565b6000918252602082815260408084206001600160a01b0393909316845291905290205460ff1690565b610f5b61089f565b6001600160a01b0316336001600160a01b031614610f8b5760405162461bcd60e51b81526004016108f7906132dd565b610909816119bc565b600a546000828152600b602052604080822054905163d45c443560e01b81526004810191909152909182916001600160a01b039091169063d45c44359060240160206040518083038186803b158015610fec57600080fd5b505afa158015611000573d6000803e3d6000fd5b505050506040513d601f19601f82011682018060405250810190611024919061338b565b9050806001146110345780611037565b60005b9392505050565b60006108a9611a25565b60006108b982611a35565b61105b61089f565b6001600160a01b0316336001600160a01b03161461108b5760405162461bcd60e51b81526004016108f7906132dd565b6110cd8483838080601f016020809104026020016040519081016040528093929190818152602001838380828437600092019190915250889250611a71915050565b5050505050565b6000848484846040516020016110ed9493929190613590565b60408051601f19818403018152919052805160209091012095945050505050565b61111661089f565b6001600160a01b0316336001600160a01b0316146111465760405162461bcd60e51b81526004016108f7906132dd565b61090981611a97565b600a546001600160a01b031690565b61116782610bba565b61117181336112de565b610cfb83836113c6565b61118361089f565b6001600160a01b0316336001600160a01b0316146111b35760405162461bcd60e51b81526004016108f7906132dd565b61090981611b00565b6111c461089f565b6001600160a01b0316336001600160a01b0316146111f45760405162461bcd60e51b81526004016108f7906132dd565b61090981611b8c565b60006110378383611c14565b60006108b982611d75565b60006001600160e01b03198216636e665ced60e01b14806108b957506108b982611d86565b61271081111561128b5760405162461bcd60e51b815260206004820152601d60248201527f71756f72756d4e756d657261746f72203e2044656e6f6d696e61746f7200000060448201526064016108f7565b60048054908290556040517f0553476bf02ef2726e8ce5ced78d63e26e602e4a2257b1f559418e24b4633997906112c59083908590613541565b60405180910390a15050565b6110cd8585858585611dab565b6112e88282610f2a565b610d7a57611300816001600160a01b03166014611e1f565b61130b836020611e1f565b60405160200161131c9291906135db565b60408051601f198184030181529082905262461bcd60e51b82526108f791600401612cef565b61134c8282610f2a565b610d7a576000828152602081815260408083206001600160a01b03851684529091529020805460ff191660011790556113823390565b6001600160a01b0316816001600160a01b0316837f2f8788117e7eff1d82e926ec794901d17c78024a50270940304540a733656f0d60405160405180910390a45050565b6113d08282610f2a565b15610d7a576000828152602081815260408083206001600160a01b0385168085529252808320805460ff1916905551339285917ff6391f5c32d9c69d2a47ea670b442974b53935d1edc7fd64eb21e047a839171b9190a45050565b60006108b9611438611fba565b8360405161190160f01b6020820152602281018390526042810182905260009060620160405160208183030381529060405280519060200120905092915050565b600080600061148a878787876120e1565b91509150610c9d816121c4565b6000610f218585858561237a565b6000806114b183612463565b905060048160078111156114c7576114c761305d565b146114d25792915050565b6000838152600b6020526040902054806114ed575092915050565b600a54604051632ab0f52960e01b8152600481018390526001600160a01b0390911690632ab0f5299060240160206040518083038186803b15801561153157600080fd5b505afa158015611545573d6000803e3d6000fd5b505050506040513d601f19601f82011682018060405250810190611569919061364a565b15611578575060079392505050565b600a54604051632c258a9f60e11b8152600481018390526001600160a01b039091169063584b153e9060240160206040518083038186803b1580156115bc57600080fd5b505afa1580156115d0573d6000803e3d6000fd5b505050506040513d601f19601f820116820180604052508101906115f4919061364a565b15611603575060059392505050565b5060029392505050565b6000610f2185858585612570565b7fc565b045403dc03c2eea82b81a0465edad9e2e7fc4d97e11421c209da93d7a936006548260405161164e929190613541565b60405180910390a1600655565b604051632394e7a360e21b8152600481018290526000907f00000000000000000000000000000000000000000000000000000000000000006001600160a01b031690638e539e8c9060240160206040518083038186803b1580156116be57600080fd5b505afa1580156116d2573d6000803e3d6000fd5b505050506040513d601f19601f820116820180604052508101906116f6919061366c565b6001600160601b031692915050565b600061170f61103e565b61171e33610846600143613695565b101561179e5760405162461bcd60e51b815260206004820152604360248201527f476f7665726e6f72436f6d7061746962696c697479427261766f3a2070726f7060448201527f6f73657220766f7465732062656c6f772070726f706f73616c207468726573686064820152621bdb1960ea1b608482015260a4016108f7565b60006117b386868686805190602001206110d4565b905084518651146117d65760405162461bcd60e51b81526004016108f7906136ac565b83518651146117f75760405162461bcd60e51b81526004016108f7906136ac565b60008651116118435760405162461bcd60e51b815260206004820152601860248201527711dbdd995c9b9bdc8e88195b5c1d1e481c1c9bdc1bdcd85b60421b60448201526064016108f7565b600081815260026020908152604091829020825191820190925281546001600160401b031690819052156118c35760405162461bcd60e51b815260206004820152602160248201527f476f7665726e6f723a2070726f706f73616c20616c72656164792065786973746044820152607360f81b60648201526084016108f7565b60006118d66118d160065490565b612622565b6118df43612622565b6118e991906136ed565b905060006118f96118d160075490565b61190390836136ed565b905061190f838361268e565b61191c600184018261268e565b7f7d84a6263ae0d98d3329bd7b46bb4e8d6f98cd35a7adb45c274c8b7fd5ebd5e084338b8b8d516001600160401b0381111561195a5761195a612d02565b60405190808252806020026020018201604052801561198d57816020015b60608152602001906001900390816119785790505b508c88888e6040516119a799989796959493929190613718565b60405180910390a15091979650505050505050565b600a54604080516001600160a01b03928316815291831660208301527f08f74ea46ef7894f65eabfb5e6e695de773a000b47c529ab559178069b226401910160405180910390a1600a80546001600160a01b0319166001600160a01b0392909216919091179055565b60006108a96105c7600143613695565b60006108b9611a43836126ab565b600084815260096020908152604091829020825191820190925290546001600160401b0316908190526126da565b6060610e5d8484846040518060600160405280602981526020016138d2602991396126f1565b600854604080516001600160401b03928316815291831660208301527f7ca4ac117ed3cdce75c1161d8207c440389b1a15d69d096831664657c07dafc2910160405180910390a1600880546001600160401b0319166001600160401b0392909216919091179055565b612710811115611b525760405162461bcd60e51b815260206004820152601f60248201527f70726f706f73616c4e756d657261746f72203e2044656e6f6d696e61746f720060448201526064016108f7565b60058054908290556040517f47036a693fe84b7d8f31616a15f6b3e26b080688ffd77d9425e3a0283a3df261906112c59083908590613541565b60008111611bd45760405162461bcd60e51b8152602060048201526015602482015274566f74696e6720706572696f6420746f6f206c6f7760581b60448201526064016108f7565b7f7e3f7f0708a84de9203036abaa450dccc85ad5ff52f78c170f3edb55cf5e882860075482604051611c07929190613541565b60405180910390a1600755565b6000807f00000000000000000000000000000000000000000000000000000000000000006001600160a01b0316633a46b1a885856040518363ffffffff1660e01b8152600401611c65929190613807565b60206040518083038186803b158015611c7d57600080fd5b505afa158015611c91573d6000803e3d6000fd5b505050506040513d601f19601f82011682018060405250810190611cb5919061366c565b6001600160601b0316905060007f00000000000000000000000000000000000000000000000000000000000000006001600160a01b0316633a46b1a886866040518363ffffffff1660e01b8152600401611d10929190613807565b60206040518083038186803b158015611d2857600080fd5b505afa158015611d3c573d6000803e3d6000fd5b505050506040513d601f19601f82011682018060405250810190611d60919061366c565b6001600160601b03169050610f218183613529565b6000612710600454610eb78461165b565b60006001600160e01b0319821663bf26d89760e01b14806108b957506108b982612817565b600a5460405163e38335e560e01b81526001600160a01b039091169063e38335e5903490611de690889088908890600090899060040161346d565b6000604051808303818588803b158015611dff57600080fd5b505af1158015611e13573d6000803e3d6000fd5b50505050505050505050565b60606000611e2e83600261354f565b611e39906002613529565b6001600160401b03811115611e5057611e50612d02565b6040519080825280601f01601f191660200182016040528015611e7a576020820181803683370190505b509050600360fc1b81600081518110611e9557611e95613820565b60200101906001600160f81b031916908160001a905350600f60fb1b81600181518110611ec457611ec4613820565b60200101906001600160f81b031916908160001a9053506000611ee884600261354f565b611ef3906001613529565b90505b6001811115611f6b576f181899199a1a9b1b9c1cb0b131b232b360811b85600f1660108110611f2757611f27613820565b1a60f81b828281518110611f3d57611f3d613820565b60200101906001600160f81b031916908160001a90535060049490941c93611f6481613836565b9050611ef6565b5083156110375760405162461bcd60e51b815260206004820181905260248201527f537472696e67733a20686578206c656e67746820696e73756666696369656e7460448201526064016108f7565b6000306001600160a01b037f00000000000000000000000000000000000000000000000000000000000000001614801561201357507f000000000000000000000000000000000000000000000000000000000000000046145b1561203d57507f000000000000000000000000000000000000000000000000000000000000000090565b50604080517f00000000000000000000000000000000000000000000000000000000000000006020808301919091527f0000000000000000000000000000000000000000000000000000000000000000828401527f000000000000000000000000000000000000000000000000000000000000000060608301524660808301523060a0808401919091528351808403909101815260c0909201909252805191012090565b6000806fa2a8918ca85bafe22016d0b997e4df60600160ff1b0383111561210e57506000905060036121bb565b8460ff16601b1415801561212657508460ff16601c14155b1561213757506000905060046121bb565b6040805160008082526020820180845289905260ff881692820192909252606081018690526080810185905260019060a0016020604051602081039080840390855afa15801561218b573d6000803e3d6000fd5b5050604051601f1901519150506001600160a01b0381166121b4576000600192509250506121bb565b9150600090505b94509492505050565b60008160048111156121d8576121d861305d565b14156121e15750565b60018160048111156121f5576121f561305d565b141561223e5760405162461bcd60e51b815260206004820152601860248201527745434453413a20696e76616c6964207369676e617475726560401b60448201526064016108f7565b60028160048111156122525761225261305d565b14156122a05760405162461bcd60e51b815260206004820152601f60248201527f45434453413a20696e76616c6964207369676e6174757265206c656e6774680060448201526064016108f7565b60038160048111156122b4576122b461305d565b141561230d5760405162461bcd60e51b815260206004820152602260248201527f45434453413a20696e76616c6964207369676e6174757265202773272076616c604482015261756560f01b60648201526084016108f7565b60048160048111156123215761232161305d565b14156109095760405162461bcd60e51b815260206004820152602260248201527f45434453413a20696e76616c6964207369676e6174757265202776272076616c604482015261756560f01b60648201526084016108f7565b6000806123898686868661284c565b600087815260096020908152604091829020825191820190925281546001600160401b031690819052919250901580156123c757506123c787612956565b15610c9d5760006123e06008546001600160401b031690565b6123e943612622565b6123f391906136ed565b90506123fe88611048565b816001600160401b0316111561244d576040516001600160401b038216815288907f541f725fb9f7c98a30cc9c0ff32fbb14358cd7159c847a3aa20a2bdc442ba5119060200160405180910390a25b612457828261268e565b50509050949350505050565b600081815260026020819052604082209081015460ff16156124885750600792915050565b6002810154610100900460ff16156124a35750600292915050565b60006124ae84610ca7565b9050806124fd5760405162461bcd60e51b815260206004820152601d60248201527f476f7665726e6f723a20756e6b6e6f776e2070726f706f73616c20696400000060448201526064016108f7565b43811061250e575060009392505050565b600061251985611048565b905043811061252d57506001949350505050565b61253685612956565b8015612555575060008581526003602052604090208054600190910154115b1561256557506004949350505050565b506003949350505050565b60008061257f8686868661298d565b6000818152600b602052604090205490915015610f2157600a546000828152600b60205260409081902054905163c4d252f560e01b81526001600160a01b039092169163c4d252f5916125d89160040190815260200190565b600060405180830381600087803b1580156125f257600080fd5b505af1158015612606573d6000803e3d6000fd5b5050506000828152600b60205260408120555095945050505050565b60006001600160401b0382111561268a5760405162461bcd60e51b815260206004820152602660248201527f53616665436173743a2076616c756520646f65736e27742066697420696e203660448201526534206269747360d01b60648201526084016108f7565b5090565b81546001600160401b0319166001600160401b0391909116179055565b60008181526002602090815260408083208151928301909152600101546001600160401b031690819052610ccf565b6000818310156126ea5781611037565b5090919050565b6060824710156127525760405162461bcd60e51b815260206004820152602660248201527f416464726573733a20696e73756666696369656e742062616c616e636520666f6044820152651c8818d85b1b60d21b60648201526084016108f7565b6001600160a01b0385163b6127a95760405162461bcd60e51b815260206004820152601d60248201527f416464726573733a2063616c6c20746f206e6f6e2d636f6e747261637400000060448201526064016108f7565b600080866001600160a01b031685876040516127c5919061384d565b60006040518083038185875af1925050503d8060008114612802576040519150601f19603f3d011682016040523d82523d6000602084013e612807565b606091505b5091509150610df5828286612a99565b60006001600160e01b03198216637965db0b60e01b14806108b957506301ffc9a760e01b6001600160e01b03198316146108b9565b6000848152600260205260408120600161286587610e00565b60078111156128765761287661305d565b146128cf5760405162461bcd60e51b815260206004820152602360248201527f476f7665726e6f723a20766f7465206e6f742063757272656e746c792061637460448201526269766560e81b60648201526084016108f7565b604080516020810190915281546001600160401b0316908190526000906128f79087906111fd565b905061290587878784612ad2565b856001600160a01b03167fb8e138887d0aa13bab447e82de9d5c1777041ecd21ca36ba824ff1e6c07ddda4888784886040516129449493929190613869565b60405180910390a29695505050505050565b6000818152600360205260408120600281015460018201546129789190613529565b61298461086685610ca7565b11159392505050565b60008061299c868686866110d4565b905060006129a982610e00565b905060028160078111156129bf576129bf61305d565b141580156129df575060068160078111156129dc576129dc61305d565b14155b80156129fd575060078160078111156129fa576129fa61305d565b14155b612a495760405162461bcd60e51b815260206004820152601d60248201527f476f7665726e6f723a2070726f706f73616c206e6f742061637469766500000060448201526064016108f7565b60008281526002602081905260409182902001805461ff001916610100179055517f789cf55be980739dad1d0699b93b58e806b51c9d96619bfa8fe0a28abaa7b30c90610ba89084815260200190565b60608315612aa8575081611037565b825115612ab85782518084602001fd5b8160405162461bcd60e51b81526004016108f79190612cef565b60008481526003602081815260408084206001600160a01b03881685529283019091529091205460ff1615612b595760405162461bcd60e51b815260206004820152602760248201527f476f7665726e6f72566f74696e6753696d706c653a20766f746520616c726561604482015266191e4818d85cdd60ca1b60648201526084016108f7565b6001600160a01b03841660009081526003820160205260408120805460ff1916600117905560ff168360ff161415612baa5781816000016000828254612b9f9190613529565b909155506110cd9050565b60ff831660011415612bca5781816001016000828254612b9f9190613529565b60ff831660021415612bea5781816002016000828254612b9f9190613529565b60405162461bcd60e51b815260206004820152603560248201527f476f7665726e6f72566f74696e6753696d706c653a20696e76616c69642076616044820152746c756520666f7220656e756d20566f74655479706560581b60648201526084016108f7565b600060208284031215612c6257600080fd5b81356001600160e01b03198116811461103757600080fd5b600060208284031215612c8c57600080fd5b5035919050565b60005b83811015612cae578181015183820152602001612c96565b83811115612cbd576000848401525b50505050565b60008151808452612cdb816020860160208601612c93565b601f01601f19169290920160200192915050565b6020815260006110376020830184612cc3565b634e487b7160e01b600052604160045260246000fd5b604051601f8201601f191681016001600160401b0381118282101715612d4057612d40612d02565b604052919050565b60006001600160401b03821115612d6157612d61612d02565b5060051b60200190565b6001600160a01b038116811461090957600080fd5b600082601f830112612d9157600080fd5b81356020612da6612da183612d48565b612d18565b82815260059290921b84018101918181019086841115612dc557600080fd5b8286015b84811015612de9578035612ddc81612d6b565b8352918301918301612dc9565b509695505050505050565b600082601f830112612e0557600080fd5b81356020612e15612da183612d48565b82815260059290921b84018101918181019086841115612e3457600080fd5b8286015b84811015612de95780358352918301918301612e38565b60006001600160401b03831115612e6857612e68612d02565b612e7b601f8401601f1916602001612d18565b9050828152838383011115612e8f57600080fd5b828260208301376000602084830101529392505050565b600082601f830112612eb757600080fd5b81356020612ec7612da183612d48565b82815260059290921b84018101918181019086841115612ee657600080fd5b8286015b84811015612de95780356001600160401b03811115612f095760008081fd5b8701603f81018913612f1b5760008081fd5b612f2c898683013560408401612e4f565b845250918301918301612eea565b60008060008060808587031215612f5057600080fd5b84356001600160401b0380821115612f6757600080fd5b612f7388838901612d80565b95506020870135915080821115612f8957600080fd5b612f9588838901612df4565b94506040870135915080821115612fab57600080fd5b50612fb887828801612ea6565b949793965093946060013593505050565b60008060408385031215612fdc57600080fd5b823591506020830135612fee81612d6b565b809150509250929050565b803560ff8116811461300a57600080fd5b919050565b600080600080600060a0868803121561302757600080fd5b8535945061303760208701612ff9565b935061304560408701612ff9565b94979396509394606081013594506080013592915050565b634e487b7160e01b600052602160045260246000fd5b602081016008831061309557634e487b7160e01b600052602160045260246000fd5b91905290565b600080604083850312156130ae57600080fd5b823591506130be60208401612ff9565b90509250929050565b60008083601f8401126130d957600080fd5b5081356001600160401b038111156130f057600080fd5b60208301915083602082850101111561310857600080fd5b9250929050565b6000806000806060858703121561312557600080fd5b8435935061313560208601612ff9565b925060408501356001600160401b0381111561315057600080fd5b61315c878288016130c7565b95989497509550505050565b6000806000806080858703121561317e57600080fd5b84356001600160401b038082111561319557600080fd5b6131a188838901612d80565b955060208701359150808211156131b757600080fd5b6131c388838901612df4565b945060408701359150808211156131d957600080fd5b6131e588838901612ea6565b935060608701359150808211156131fb57600080fd5b508501601f8101871361320d57600080fd5b61321c87823560208401612e4f565b91505092959194509250565b60006020828403121561323a57600080fd5b813561103781612d6b565b6000806000806060858703121561325b57600080fd5b843561326681612d6b565b93506020850135925060408501356001600160401b0381111561315057600080fd5b60006020828403121561329a57600080fd5b81356001600160401b038116811461103757600080fd5b600080604083850312156132c457600080fd5b82356132cf81612d6b565b946020939093013593505050565b602080825260189082015277476f7665726e6f723a206f6e6c79476f7665726e616e636560401b604082015260600190565b600181811c9082168061332357607f821691505b6020821081141561334457634e487b7160e01b600052602260045260246000fd5b50919050565b60208082526021908201527f476f7665726e6f723a2070726f706f73616c206e6f74207375636365737366756040820152601b60fa1b606082015260800190565b60006020828403121561339d57600080fd5b5051919050565b600081518084526020808501945080840160005b838110156133dd5781516001600160a01b0316875295820195908201906001016133b8565b509495945050505050565b600081518084526020808501945080840160005b838110156133dd578151875295820195908201906001016133fc565b600081518084526020808501808196508360051b8101915082860160005b8581101561346057828403895261344e848351612cc3565b98850198935090840190600101613436565b5091979650505050505050565b60a08152600061348060a08301886133a4565b828103602084015261349281886133e8565b905082810360408401526134a68187613418565b60608401959095525050608001529392505050565b60c0815260006134ce60c08301896133a4565b82810360208401526134e081896133e8565b905082810360408401526134f48188613418565b60608401969096525050608081019290925260a0909101529392505050565b634e487b7160e01b600052601160045260246000fd5b6000821982111561353c5761353c613513565b500190565b918252602082015260400190565b600081600019048311821515161561356957613569613513565b500290565b60008261358b57634e487b7160e01b600052601260045260246000fd5b500490565b6080815260006135a360808301876133a4565b82810360208401526135b581876133e8565b905082810360408401526135c98186613418565b91505082606083015295945050505050565b76020b1b1b2b9b9a1b7b73a3937b61d1030b1b1b7bab73a1604d1b81526000835161360d816017850160208801612c93565b7001034b99036b4b9b9b4b733903937b6329607d1b601791840191820152835161363e816028840160208801612c93565b01602801949350505050565b60006020828403121561365c57600080fd5b8151801515811461103757600080fd5b60006020828403121561367e57600080fd5b81516001600160601b038116811461103757600080fd5b6000828210156136a7576136a7613513565b500390565b60208082526021908201527f476f7665726e6f723a20696e76616c69642070726f706f73616c206c656e67746040820152600d60fb1b606082015260800190565b60006001600160401b0382811684821680830382111561370f5761370f613513565b01949350505050565b60006101208b8352602060018060a01b038c16818501528160408501526137418285018c6133a4565b91508382036060850152613755828b6133e8565b915083820360808501528189518084528284019150828160051b850101838c0160005b838110156137a657601f19878403018552613794838351612cc3565b94860194925090850190600101613778565b505086810360a08801526137ba818c613418565b9450505050506137d560c08401876001600160401b03169052565b6001600160401b03851660e08401528281036101008401526137f78185612cc3565b9c9b505050505050505050505050565b6001600160a01b03929092168252602082015260400190565b634e487b7160e01b600052603260045260246000fd5b60008161384557613845613513565b506000190190565b6000825161385f818460208701612c93565b9190910192915050565b84815260ff84166020820152826040820152608060608201526000610e326080830184612cc356fe150214d74d59b7d1e90c73fc22ef3d991dd0a76b046543d4d80ab92d2a50328f65784a4b4efdf70060d396b05be05b4852e8b22ae249d76915bea0da3f992c64416464726573733a206c6f772d6c6576656c2063616c6c20776974682076616c7565206661696c6564a2646970667358221220c7709da014f767592d03ee4e71607fe9c7a0daf610f0251c589e6c1f6037545664736f6c63430008090033",
  "devdoc": {
    "kind": "dev",
    "methods": {
      "COUNTING_MODE()": {
        "details": "See {IGovernor-COUNTING_MODE}."
      },
      "castVote(uint256,uint8)": {
        "details": "See {IGovernor-castVote}."
      },
      "castVoteBySig(uint256,uint8,uint8,bytes32,bytes32)": {
        "details": "See {IGovernor-castVoteBySig}."
      },
      "castVoteWithReason(uint256,uint8,string)": {
        "details": "See {IGovernor-castVoteWithReason}."
      },
      "execute(address[],uint256[],bytes[],bytes32)": {
        "details": "See {IGovernor-execute}."
      },
      "getRoleAdmin(bytes32)": {
        "details": "Returns the admin role that controls `role`. See {grantRole} and {revokeRole}. To change a role's admin, use {_setRoleAdmin}."
      },
      "grantRole(bytes32,address)": {
        "details": "Grants `role` to `account`. If `account` had not been already granted `role`, emits a {RoleGranted} event. Requirements: - the caller must have ``role``'s admin role."
      },
      "hasRole(bytes32,address)": {
        "details": "Returns `true` if `account` has been granted `role`."
      },
      "hasVoted(uint256,address)": {
        "details": "See {IGovernor-hasVoted}."
      },
      "hashProposal(address[],uint256[],bytes[],bytes32)": {
        "details": "See {IGovernor-hashProposal}. The proposal id is produced by hashing the RLC encoded `targets` array, the `values` array, the `calldatas` array and the descriptionHash (bytes32 which itself is the keccak256 hash of the description string). This proposal id can be produced from the proposal data which is part of the {ProposalCreated} event. It can even be computed in advance, before the proposal is submitted. Note that the chainId and the governor address are not part of the proposal id computation. Consequently, the same proposal (with same operation and same description) will have the same id if submitted on multiple governors accross multiple networks. This also means that in order to execute the same operation twice (on the same governor) the proposer will have to change the description in order to avoid proposal id conflicts."
      },
      "lateQuorumVoteExtension()": {
        "details": "Returns the current value of the vote extension parameter: the number of blocks that are required to pass from the time a proposal reaches quorum until its voting period ends."
      },
      "name()": {
        "details": "See {IGovernor-name}."
      },
      "proposalEta(uint256)": {
        "details": "Public accessor to check the eta of a queued proposal"
      },
      "proposalSnapshot(uint256)": {
        "details": "See {IGovernor-proposalSnapshot}."
      },
      "proposalThreshold(uint256)": {
        "params": {
          "blockNumber": "The block number to get the proposal threshold at"
        }
      },
      "proposalVotes(uint256)": {
        "details": "Accessor to the internal vote counts."
      },
      "queue(address[],uint256[],bytes[],bytes32)": {
        "details": "Function to queue a proposal to the timelock."
      },
      "relay(address,uint256,bytes)": {
        "details": "Relays a transaction or function call to an arbitrary target. In cases where the governance executor is some contract other than the governor itself, like when using a timelock, this function can be invoked in a governance proposal to recover tokens or Ether that was sent to the governor contract by mistake. Note that if the executor is simply the governor itself, use of `relay` is redundant."
      },
      "renounceRole(bytes32,address)": {
        "details": "Revokes `role` from the calling account. Roles are often managed via {grantRole} and {revokeRole}: this function's purpose is to provide a mechanism for accounts to lose their privileges if they are compromised (such as when a trusted device is misplaced). If the calling account had been revoked `role`, emits a {RoleRevoked} event. Requirements: - the caller must be `account`."
      },
      "revokeRole(bytes32,address)": {
        "details": "Revokes `role` from `account`. If `account` had been granted `role`, emits a {RoleRevoked} event. Requirements: - the caller must have ``role``'s admin role."
      },
      "setLateQuorumVoteExtension(uint64)": {
        "details": "Changes the {lateQuorumVoteExtension}. This operation can only be performed by the governance executor, generally through a governance proposal. Emits a {LateQuorumVoteExtensionSet} event."
      },
      "timelock()": {
        "details": "Public accessor to check the address of the timelock"
      },
      "updateTimelock(address)": {
        "details": "Public endpoint to update the underlying timelock instance. Restricted to the timelock itself, so updates must be proposed, scheduled, and executed through governance proposals. CAUTION: It is not recommended to change the timelock while there are other queued governance proposals."
      },
      "version()": {
        "details": "See {IGovernor-version}."
      },
      "votingDelay()": {
        "details": "Delay, in number of block, between the proposal is created and the vote starts. This can be increassed to leave time for users to buy voting power, of delegate it, before the voting of a proposal starts."
      },
      "votingPeriod()": {
        "details": "Delay, in number of blocks, between the vote start and vote ends. NOTE: The {votingDelay} can delay the start of the vote. This must be considered when setting the voting duration compared to the voting delay."
      }
    },
    "version": 1
  },
  "userdoc": {
    "kind": "user",
    "methods": {
      "proposalThreshold(uint256)": {
        "notice": "Compute the required amount of voting power to create a proposal"
      },
      "setVotingDelay(uint256)": {
        "notice": "Update the voting delay. This operation can only be performed         through a governance proposal. Emits a `VotingDelaySet` event."
      },
      "setVotingPeriod(uint256)": {
        "notice": "Update the voting period. This operation can only be performed         through a governance proposal. Emits a `VotingPeriodSet` event."
      },
      "votingDelay()": {
        "notice": "module:user-config"
      },
      "votingPeriod()": {
        "notice": "module:user-config"
      }
    },
    "version": 1
  },
  "storageLayout": {
    "storage": [
      {
        "astId": 1124,
        "contract": "contracts/governance/TokenholderGovernor.sol:TokenholderGovernor",
        "label": "_roles",
        "offset": 0,
        "slot": "0",
        "type": "t_mapping(t_bytes32,t_struct(RoleData)1119_storage)"
      },
      {
        "astId": 1630,
        "contract": "contracts/governance/TokenholderGovernor.sol:TokenholderGovernor",
        "label": "_name",
        "offset": 0,
        "slot": "1",
        "type": "t_string_storage"
      },
      {
        "astId": 1635,
        "contract": "contracts/governance/TokenholderGovernor.sol:TokenholderGovernor",
        "label": "_proposals",
        "offset": 0,
        "slot": "2",
        "type": "t_mapping(t_uint256,t_struct(ProposalCore)1628_storage)"
      },
      {
        "astId": 3482,
        "contract": "contracts/governance/TokenholderGovernor.sol:TokenholderGovernor",
        "label": "_proposalVotes",
        "offset": 0,
        "slot": "3",
        "type": "t_mapping(t_uint256,t_struct(ProposalVote)3477_storage)"
      },
      {
        "astId": 10696,
        "contract": "contracts/governance/TokenholderGovernor.sol:TokenholderGovernor",
        "label": "quorumNumerator",
        "offset": 0,
        "slot": "4",
        "type": "t_uint256"
      },
      {
        "astId": 10698,
        "contract": "contracts/governance/TokenholderGovernor.sol:TokenholderGovernor",
        "label": "proposalThresholdNumerator",
        "offset": 0,
        "slot": "5",
        "type": "t_uint256"
      },
      {
        "astId": 10700,
        "contract": "contracts/governance/TokenholderGovernor.sol:TokenholderGovernor",
        "label": "_votingDelay",
        "offset": 0,
        "slot": "6",
        "type": "t_uint256"
      },
      {
        "astId": 10702,
        "contract": "contracts/governance/TokenholderGovernor.sol:TokenholderGovernor",
        "label": "_votingPeriod",
        "offset": 0,
        "slot": "7",
        "type": "t_uint256"
      },
      {
        "astId": 3696,
        "contract": "contracts/governance/TokenholderGovernor.sol:TokenholderGovernor",
        "label": "_voteExtension",
        "offset": 0,
        "slot": "8",
        "type": "t_uint64"
      },
      {
        "astId": 3701,
        "contract": "contracts/governance/TokenholderGovernor.sol:TokenholderGovernor",
        "label": "_extendedDeadlines",
        "offset": 0,
        "slot": "9",
        "type": "t_mapping(t_uint256,t_struct(BlockNumber)7779_storage)"
      },
      {
        "astId": 3875,
        "contract": "contracts/governance/TokenholderGovernor.sol:TokenholderGovernor",
        "label": "_timelock",
        "offset": 0,
        "slot": "10",
        "type": "t_contract(TimelockController)3456"
      },
      {
        "astId": 3879,
        "contract": "contracts/governance/TokenholderGovernor.sol:TokenholderGovernor",
        "label": "_timelockIds",
        "offset": 0,
        "slot": "11",
        "type": "t_mapping(t_uint256,t_bytes32)"
      }
    ],
    "types": {
      "t_address": {
        "encoding": "inplace",
        "label": "address",
        "numberOfBytes": "20"
      },
      "t_bool": {
        "encoding": "inplace",
        "label": "bool",
        "numberOfBytes": "1"
      },
      "t_bytes32": {
        "encoding": "inplace",
        "label": "bytes32",
        "numberOfBytes": "32"
      },
      "t_contract(TimelockController)3456": {
        "encoding": "inplace",
        "label": "contract TimelockController",
        "numberOfBytes": "20"
      },
      "t_mapping(t_address,t_bool)": {
        "encoding": "mapping",
        "key": "t_address",
        "label": "mapping(address => bool)",
        "numberOfBytes": "32",
        "value": "t_bool"
      },
      "t_mapping(t_bytes32,t_struct(RoleData)1119_storage)": {
        "encoding": "mapping",
        "key": "t_bytes32",
        "label": "mapping(bytes32 => struct AccessControl.RoleData)",
        "numberOfBytes": "32",
        "value": "t_struct(RoleData)1119_storage"
      },
      "t_mapping(t_uint256,t_bytes32)": {
        "encoding": "mapping",
        "key": "t_uint256",
        "label": "mapping(uint256 => bytes32)",
        "numberOfBytes": "32",
        "value": "t_bytes32"
      },
      "t_mapping(t_uint256,t_struct(BlockNumber)7779_storage)": {
        "encoding": "mapping",
        "key": "t_uint256",
        "label": "mapping(uint256 => struct Timers.BlockNumber)",
        "numberOfBytes": "32",
        "value": "t_struct(BlockNumber)7779_storage"
      },
      "t_mapping(t_uint256,t_struct(ProposalCore)1628_storage)": {
        "encoding": "mapping",
        "key": "t_uint256",
        "label": "mapping(uint256 => struct Governor.ProposalCore)",
        "numberOfBytes": "32",
        "value": "t_struct(ProposalCore)1628_storage"
      },
      "t_mapping(t_uint256,t_struct(ProposalVote)3477_storage)": {
        "encoding": "mapping",
        "key": "t_uint256",
        "label": "mapping(uint256 => struct GovernorCountingSimple.ProposalVote)",
        "numberOfBytes": "32",
        "value": "t_struct(ProposalVote)3477_storage"
      },
      "t_string_storage": {
        "encoding": "bytes",
        "label": "string",
        "numberOfBytes": "32"
      },
      "t_struct(BlockNumber)7779_storage": {
        "encoding": "inplace",
        "label": "struct Timers.BlockNumber",
        "members": [
          {
            "astId": 7778,
            "contract": "contracts/governance/TokenholderGovernor.sol:TokenholderGovernor",
            "label": "_deadline",
            "offset": 0,
            "slot": "0",
            "type": "t_uint64"
          }
        ],
        "numberOfBytes": "32"
      },
      "t_struct(ProposalCore)1628_storage": {
        "encoding": "inplace",
        "label": "struct Governor.ProposalCore",
        "members": [
          {
            "astId": 1620,
            "contract": "contracts/governance/TokenholderGovernor.sol:TokenholderGovernor",
            "label": "voteStart",
            "offset": 0,
            "slot": "0",
            "type": "t_struct(BlockNumber)7779_storage"
          },
          {
            "astId": 1623,
            "contract": "contracts/governance/TokenholderGovernor.sol:TokenholderGovernor",
            "label": "voteEnd",
            "offset": 0,
            "slot": "1",
            "type": "t_struct(BlockNumber)7779_storage"
          },
          {
            "astId": 1625,
            "contract": "contracts/governance/TokenholderGovernor.sol:TokenholderGovernor",
            "label": "executed",
            "offset": 0,
            "slot": "2",
            "type": "t_bool"
          },
          {
            "astId": 1627,
            "contract": "contracts/governance/TokenholderGovernor.sol:TokenholderGovernor",
            "label": "canceled",
            "offset": 1,
            "slot": "2",
            "type": "t_bool"
          }
        ],
        "numberOfBytes": "96"
      },
      "t_struct(ProposalVote)3477_storage": {
        "encoding": "inplace",
        "label": "struct GovernorCountingSimple.ProposalVote",
        "members": [
          {
            "astId": 3468,
            "contract": "contracts/governance/TokenholderGovernor.sol:TokenholderGovernor",
            "label": "againstVotes",
            "offset": 0,
            "slot": "0",
            "type": "t_uint256"
          },
          {
            "astId": 3470,
            "contract": "contracts/governance/TokenholderGovernor.sol:TokenholderGovernor",
            "label": "forVotes",
            "offset": 0,
            "slot": "1",
            "type": "t_uint256"
          },
          {
            "astId": 3472,
            "contract": "contracts/governance/TokenholderGovernor.sol:TokenholderGovernor",
            "label": "abstainVotes",
            "offset": 0,
            "slot": "2",
            "type": "t_uint256"
          },
          {
            "astId": 3476,
            "contract": "contracts/governance/TokenholderGovernor.sol:TokenholderGovernor",
            "label": "hasVoted",
            "offset": 0,
            "slot": "3",
            "type": "t_mapping(t_address,t_bool)"
          }
        ],
        "numberOfBytes": "128"
      },
      "t_struct(RoleData)1119_storage": {
        "encoding": "inplace",
        "label": "struct AccessControl.RoleData",
        "members": [
          {
            "astId": 1116,
            "contract": "contracts/governance/TokenholderGovernor.sol:TokenholderGovernor",
            "label": "members",
            "offset": 0,
            "slot": "0",
            "type": "t_mapping(t_address,t_bool)"
          },
          {
            "astId": 1118,
            "contract": "contracts/governance/TokenholderGovernor.sol:TokenholderGovernor",
            "label": "adminRole",
            "offset": 0,
            "slot": "1",
            "type": "t_bytes32"
          }
        ],
        "numberOfBytes": "64"
      },
      "t_uint256": {
        "encoding": "inplace",
        "label": "uint256",
        "numberOfBytes": "32"
      },
      "t_uint64": {
        "encoding": "inplace",
        "label": "uint64",
        "numberOfBytes": "8"
      }
    }
  }
}