{
  "address": "0x1CCA7E410eE41739792eA0A24e00349Dd247680e",
  "abi": [
    {
      "inputs": [
        {
          "internalType": "contract IERC20",
          "name": "_wrappedToken",
          "type": "address"
        },
        {
          "internalType": "contract T",
          "name": "_tToken",
          "type": "address"
        },
        {
          "internalType": "uint96",
          "name": "_wrappedTokenAllocation",
          "type": "uint96"
        },
        {
          "internalType": "uint96",
          "name": "_tTokenAllocation",
          "type": "uint96"
        }
      ],
      "stateMutability": "nonpayable",
      "type": "constructor"
    },
    {
      "anonymous": false,
      "inputs": [
        {
          "indexed": true,
          "internalType": "address",
          "name": "recipient",
          "type": "address"
        },
        {
          "indexed": false,
          "internalType": "uint256",
          "name": "tTokenAmount",
          "type": "uint256"
        },
        {
          "indexed": false,
          "internalType": "uint256",
          "name": "wrappedTokenAmount",
          "type": "uint256"
        }
      ],
      "name": "Unwrapped",
      "type": "event"
    },
    {
      "anonymous": false,
      "inputs": [
        {
          "indexed": true,
          "internalType": "address",
          "name": "recipient",
          "type": "address"
        },
        {
          "indexed": false,
          "internalType": "uint256",
          "name": "wrappedTokenAmount",
          "type": "uint256"
        },
        {
          "indexed": false,
          "internalType": "uint256",
          "name": "tTokenAmount",
          "type": "uint256"
        }
      ],
      "name": "Wrapped",
      "type": "event"
    },
    {
      "inputs": [],
      "name": "FLOATING_POINT_DIVISOR",
      "outputs": [
        {
          "internalType": "uint256",
          "name": "",
          "type": "uint256"
        }
      ],
      "stateMutability": "view",
      "type": "function"
    },
    {
      "inputs": [],
      "name": "WRAPPED_TOKEN_CONVERSION_PRECISION",
      "outputs": [
        {
          "internalType": "uint256",
          "name": "",
          "type": "uint256"
        }
      ],
      "stateMutability": "view",
      "type": "function"
    },
    {
      "inputs": [
        {
          "internalType": "uint256",
          "name": "amount",
          "type": "uint256"
        }
      ],
      "name": "conversionFromT",
      "outputs": [
        {
          "internalType": "uint256",
          "name": "wrappedAmount",
          "type": "uint256"
        },
        {
          "internalType": "uint256",
          "name": "tRemainder",
          "type": "uint256"
        }
      ],
      "stateMutability": "view",
      "type": "function"
    },
    {
      "inputs": [
        {
          "internalType": "uint256",
          "name": "amount",
          "type": "uint256"
        }
      ],
      "name": "conversionToT",
      "outputs": [
        {
          "internalType": "uint256",
          "name": "tAmount",
          "type": "uint256"
        },
        {
          "internalType": "uint256",
          "name": "wrappedRemainder",
          "type": "uint256"
        }
      ],
      "stateMutability": "view",
      "type": "function"
    },
    {
      "inputs": [],
      "name": "ratio",
      "outputs": [
        {
          "internalType": "uint256",
          "name": "",
          "type": "uint256"
        }
      ],
      "stateMutability": "view",
      "type": "function"
    },
    {
      "inputs": [
        {
          "internalType": "address",
          "name": "from",
          "type": "address"
        },
        {
          "internalType": "uint256",
          "name": "amount",
          "type": "uint256"
        },
        {
          "internalType": "address",
          "name": "token",
          "type": "address"
        },
        {
          "internalType": "bytes",
          "name": "",
          "type": "bytes"
        }
      ],
      "name": "receiveApproval",
      "outputs": [],
      "stateMutability": "nonpayable",
      "type": "function"
    },
    {
      "inputs": [],
      "name": "tToken",
      "outputs": [
        {
          "internalType": "contract T",
          "name": "",
          "type": "address"
        }
      ],
      "stateMutability": "view",
      "type": "function"
    },
    {
      "inputs": [
        {
          "internalType": "uint256",
          "name": "amount",
          "type": "uint256"
        }
      ],
      "name": "unwrap",
      "outputs": [],
      "stateMutability": "nonpayable",
      "type": "function"
    },
    {
      "inputs": [
        {
          "internalType": "uint256",
          "name": "amount",
          "type": "uint256"
        }
      ],
      "name": "wrap",
      "outputs": [],
      "stateMutability": "nonpayable",
      "type": "function"
    },
    {
      "inputs": [
        {
          "internalType": "address",
          "name": "",
          "type": "address"
        }
      ],
      "name": "wrappedBalance",
      "outputs": [
        {
          "internalType": "uint256",
          "name": "",
          "type": "uint256"
        }
      ],
      "stateMutability": "view",
      "type": "function"
    },
    {
      "inputs": [],
      "name": "wrappedToken",
      "outputs": [
        {
          "internalType": "contract IERC20",
          "name": "",
          "type": "address"
        }
      ],
      "stateMutability": "view",
      "type": "function"
    }
  ],
  "transactionHash": "0x448ce43a7b3b1bdae0abfc60f7325e41a456fd47b3eecd66c873ab92baf14b31",
  "args": [
    "0x4fE83213D56308330EC302a8BD641f1d0113A4Cc",
    "0xCdF7028ceAB81fA0C6971208e83fa7872994beE5",
    "1380688920644254727736959922",
    "4500000000000000000000000000"
  ],
  "solcInputHash": "43eb8b17fe7c2ce0e21167459a2d9d30",
  "bytecode": "0x60e06040523480156200001157600080fd5b5060405162001097380380620010978339810160408190526200003491620000cc565b6001600160a01b03808516608052831660a0526001600160601b03808316908216620000636003601262000144565b6200007090600a6200025d565b6200007c919062000272565b62000088919062000294565b60c05250620002b792505050565b6001600160a01b0381168114620000ac57600080fd5b50565b80516001600160601b0381168114620000c757600080fd5b919050565b60008060008060808587031215620000e357600080fd5b8451620000f08162000096565b6020860151909450620001038162000096565b92506200011360408601620000af565b91506200012360608601620000af565b905092959194509250565b634e487b7160e01b600052601160045260246000fd5b6000828210156200015957620001596200012e565b500390565b600181815b808511156200019f5781600019048211156200018357620001836200012e565b808516156200019157918102915b93841c939080029062000163565b509250929050565b600082620001b85750600162000257565b81620001c75750600062000257565b8160018114620001e05760028114620001eb576200020b565b600191505062000257565b60ff841115620001ff57620001ff6200012e565b50506001821b62000257565b5060208310610133831016604e8410600b841016171562000230575081810a62000257565b6200023c83836200015e565b80600019048211156200025357620002536200012e565b0290505b92915050565b60006200026b8383620001a7565b9392505050565b60008160001904831182151516156200028f576200028f6200012e565b500290565b600082620002b257634e487b7160e01b600052601260045260246000fd5b500490565b60805160a05160c051610d72620003256000396000818160f601528181610244015281816103b601526103ed0152600081816101910152818161053101526106960152600081816101520152818161029701528181610326015281816104fc01526106cb0152610d726000f3fe608060405234801561001057600080fd5b50600436106100a95760003560e01c8063996c6cc311610071578063996c6cc31461014d578063c35d64ea1461018c578063cff0eac5146101b3578063de0e9a3e146101c6578063ea598cb0146101d9578063f4fc2f47146101ec57600080fd5b80631c060cbe146100ae57806351b83ebc146100db57806371ca337d146100f15780637a93f256146101185780638f4ffcb114610138575b600080fd5b6100c16100bc3660046109de565b6101f4565b604080519283526020830191909152015b60405180910390f35b6100e361027b565b6040519081526020016100d2565b6100e37f000000000000000000000000000000000000000000000000000000000000000081565b6100e3610126366004610a13565b60006020819052908152604090205481565b61014b610146366004610a2e565b610295565b005b6101747f000000000000000000000000000000000000000000000000000000000000000081565b6040516001600160a01b0390911681526020016100d2565b6101747f000000000000000000000000000000000000000000000000000000000000000081565b6100c16101c13660046109de565b6103ae565b61014b6101d43660046109de565b61042d565b61014b6101e73660046109de565b61043a565b6100e3600381565b60008061020360036012610adf565b61020e90600a610bdc565b6102189084610bfe565b905060006102268285610adf565b905061023460036012610adf565b61023f90600a610bdc565b6102697f000000000000000000000000000000000000000000000000000000000000000083610c12565b6102739190610c31565b925050915091565b61028760036012610adf565b61029290600a610bdc565b81565b7f00000000000000000000000000000000000000000000000000000000000000006001600160a01b0316836001600160a01b03161461031b5760405162461bcd60e51b815260206004820152601e60248201527f546f6b656e206973206e6f7420746865207772617070656420746f6b656e000060448201526064015b60405180910390fd5b336001600160a01b037f0000000000000000000000000000000000000000000000000000000000000000161461039d5760405162461bcd60e51b815260206004820152602160248201527f4f6e6c79207772617070656420746f6b656e2063616c6c657220616c6c6f77656044820152601960fa1b6064820152608401610312565b6103a78585610440565b5050505050565b6000806103db7f000000000000000000000000000000000000000000000000000000000000000084610bfe565b905060006103e98285610adf565b90507f000000000000000000000000000000000000000000000000000000000000000061041860036012610adf565b61042390600a610bdc565b6102699083610c12565b610437338261055e565b50565b61043733825b60008061044c836101f4565b909250905061045b8184610adf565b92506000831161047d5760405162461bcd60e51b815260040161031290610c45565b60408051848152602081018490526001600160a01b038616917f727200b48f3c812bfb404b578574e1c03694edb122d80fa6dcb352a9e4f8a938910160405180910390a26001600160a01b038416600090815260208190526040812080548592906104e9908490610c87565b9091555061052490506001600160a01b037f0000000000000000000000000000000000000000000000000000000000000000168530866106f2565b6105586001600160a01b037f000000000000000000000000000000000000000000000000000000000000000016858461075d565b50505050565b60008061056a836103ae565b90925090506105798184610adf565b92506000831161059b5760405162461bcd60e51b815260040161031290610c45565b6001600160a01b0384166000908152602081905260409020548211156106175760405162461bcd60e51b815260206004820152602b60248201527f43616e206e6f7420756e77726170206d6f7265207468616e2070726576696f7560448201526a1cdb1e481ddc985c1c195960aa1b6064820152608401610312565b60408051848152602081018490526001600160a01b038616917ff64ae1cc3e0e07da9c895b3225439175cab5838aca24c4e74852704858c96a7b910160405180910390a26001600160a01b03841660009081526020819052604081208054849290610683908490610adf565b909155506106be90506001600160a01b037f0000000000000000000000000000000000000000000000000000000000000000168530866106f2565b6105586001600160a01b037f000000000000000000000000000000000000000000000000000000000000000016858461075d565b6040516001600160a01b03808516602483015283166044820152606481018290526105589085906323b872dd60e01b906084015b60408051601f198184030181529190526020810180516001600160e01b03166001600160e01b031990931692909217909152610792565b6040516001600160a01b03831660248201526044810182905261078d90849063a9059cbb60e01b90606401610726565b505050565b60006107e7826040518060400160405280602081526020017f5361666545524332303a206c6f772d6c6576656c2063616c6c206661696c6564815250856001600160a01b03166108649092919063ffffffff16565b80519091501561078d57808060200190518101906108059190610c9f565b61078d5760405162461bcd60e51b815260206004820152602a60248201527f5361666545524332303a204552433230206f7065726174696f6e20646964206e6044820152691bdd081cdd58d8d9595960b21b6064820152608401610312565b6060610873848460008561087d565b90505b9392505050565b6060824710156108de5760405162461bcd60e51b815260206004820152602660248201527f416464726573733a20696e73756666696369656e742062616c616e636520666f6044820152651c8818d85b1b60d21b6064820152608401610312565b843b61092c5760405162461bcd60e51b815260206004820152601d60248201527f416464726573733a2063616c6c20746f206e6f6e2d636f6e74726163740000006044820152606401610312565b600080866001600160a01b031685876040516109489190610ced565b60006040518083038185875af1925050503d8060008114610985576040519150601f19603f3d011682016040523d82523d6000602084013e61098a565b606091505b509150915061099a8282866109a5565b979650505050505050565b606083156109b4575081610876565b8251156109c45782518084602001fd5b8160405162461bcd60e51b81526004016103129190610d09565b6000602082840312156109f057600080fd5b5035919050565b80356001600160a01b0381168114610a0e57600080fd5b919050565b600060208284031215610a2557600080fd5b610876826109f7565b600080600080600060808688031215610a4657600080fd5b610a4f866109f7565b945060208601359350610a64604087016109f7565b9250606086013567ffffffffffffffff80821115610a8157600080fd5b818801915088601f830112610a9557600080fd5b813581811115610aa457600080fd5b896020828501011115610ab657600080fd5b9699959850939650602001949392505050565b634e487b7160e01b600052601160045260246000fd5b600082821015610af157610af1610ac9565b500390565b600181815b80851115610b31578160001904821115610b1757610b17610ac9565b80851615610b2457918102915b93841c9390800290610afb565b509250929050565b600082610b4857506001610bd6565b81610b5557506000610bd6565b8160018114610b6b5760028114610b7557610b91565b6001915050610bd6565b60ff841115610b8657610b86610ac9565b50506001821b610bd6565b5060208310610133831016604e8410600b8410161715610bb4575081810a610bd6565b610bbe8383610af6565b8060001904821115610bd257610bd2610ac9565b0290505b92915050565b60006108768383610b39565b634e487b7160e01b600052601260045260246000fd5b600082610c0d57610c0d610be8565b500690565b6000816000190483118215151615610c2c57610c2c610ac9565b500290565b600082610c4057610c40610be8565b500490565b60208082526022908201527f446973616c6c6f7720636f6e76657273696f6e73206f66207a65726f2076616c604082015261756560f01b606082015260800190565b60008219821115610c9a57610c9a610ac9565b500190565b600060208284031215610cb157600080fd5b8151801515811461087657600080fd5b60005b83811015610cdc578181015183820152602001610cc4565b838111156105585750506000910152565b60008251610cff818460208701610cc1565b9190910192915050565b6020815260008251806020840152610d28816040850160208701610cc1565b601f01601f1916919091016040019291505056fea264697066735822122067d5c8bd0f1249a48948d1f378dbf5ab4ff1b77bc5d7fc1dca574055bd5d487264736f6c63430008090033",
  "devdoc": {
    "kind": "dev",
    "methods": {
      "constructor": {
        "details": "Multiplications in this contract can't overflow uint256 as we     restrict `_wrappedTokenAllocation` and `_tTokenAllocation` to     96 bits and FLOATING_POINT_DIVISOR fits in less than 60 bits.",
        "params": {
          "_tToken": "Address of T token",
          "_tTokenAllocation": "The allocation of T this instance of Vending        Machine will receive",
          "_wrappedToken": "Address to ERC20 token that will be wrapped to T",
          "_wrappedTokenAllocation": "The total supply of the token that will be       wrapped to T"
        }
      },
      "receiveApproval(address,uint256,address,bytes)": {
        "params": {
          "amount": "The amount of KEEP/NU to be wrapped",
          "from": "Caller's address, must be the same as `wrappedToken` field",
          "token": "Token's address, must be the same as `wrappedToken` field"
        }
      },
      "unwrap(uint256)": {
        "params": {
          "amount": "The amount of T to unwrap back to the collateral (KEEP/NU)"
        }
      },
      "wrap(uint256)": {
        "params": {
          "amount": "The amount of KEEP/NU to be wrapped"
        }
      }
    },
    "title": "T token vending machine",
    "version": 1
  },
  "userdoc": {
    "kind": "user",
    "methods": {
      "FLOATING_POINT_DIVISOR()": {
        "notice": "Divisor for precision purposes, used to represent fractions."
      },
      "WRAPPED_TOKEN_CONVERSION_PRECISION()": {
        "notice": "Number of decimal places of precision in conversion to/from         wrapped tokens (assuming typical ERC20 token with 18 decimals).         This implies that amounts of wrapped tokens below this precision         won't take part in the conversion. E.g., for a value of 3, then         for a conversion of 1.123456789 wrapped tokens, only 1.123 is         convertible (i.e., 3 decimal places), and 0.000456789 is left."
      },
      "constructor": {
        "notice": "Sets the reference to `wrappedToken` and `tToken`. Initializes         conversion `ratio` between wrapped token and T based on the         provided `_tTokenAllocation` and `_wrappedTokenAllocation`."
      },
      "conversionFromT(uint256)": {
        "notice": "The amount of wrapped tokens (KEEP/NU) that's obtained from         `amount` T tokens, and the remainder that can't be downgraded."
      },
      "conversionToT(uint256)": {
        "notice": "Returns the T token amount that's obtained from `amount` wrapped         tokens (KEEP/NU), and the remainder that can't be upgraded."
      },
      "ratio()": {
        "notice": "The ratio with which T token is converted based on the provided         token being wrapped (KEEP/NU), expressed in 1e18 precision.         When wrapping:           x [T] = amount [KEEP/NU] * ratio / FLOATING_POINT_DIVISOR         When unwrapping:           x [KEEP/NU] = amount [T] * FLOATING_POINT_DIVISOR / ratio"
      },
      "receiveApproval(address,uint256,address,bytes)": {
        "notice": "Wraps up to the given amount of the token (KEEP/NU) and releases         T token proportionally to the amount being wrapped with respect         to the wrap ratio. This is a shortcut to `wrap` function that         avoids a separate approval transaction. Only KEEP/NU token         is allowed as a caller, so please call this function via         token's `approveAndCall`."
      },
      "tToken()": {
        "notice": "T token contract."
      },
      "unwrap(uint256)": {
        "notice": "Unwraps up to the given `amount` of T back to the legacy token         (KEEP/NU) according to the wrap ratio. It can only be called by         a token holder who previously wrapped their tokens in this         vending machine contract. The token holder can't unwrap more         tokens than they originally wrapped. The token holder needs to         have at least the given amount of T tokens approved to transfer         to the Vending Machine before calling this function."
      },
      "wrap(uint256)": {
        "notice": "Wraps up to the the given `amount` of the token (KEEP/NU) and         releases T token proportionally to the amount being wrapped with         respect to the wrap ratio. The token holder needs to have at         least the given amount of the wrapped token (KEEP/NU) approved         to transfer to the Vending Machine before calling this function."
      },
      "wrappedBalance(address)": {
        "notice": "The total balance of wrapped tokens for the given holder         account. Only holders that have previously wrapped KEEP/NU to T         can unwrap, up to the amount previously wrapped."
      },
      "wrappedToken()": {
        "notice": "The token being wrapped to T (KEEP/NU)."
      }
    },
    "notice": "Contract implements a special update protocol to enable KEEP/NU         token holders to wrap their tokens and obtain T tokens according         to a fixed ratio. This will go on indefinitely and enable NU and         KEEP token holders to join T network without needing to buy or         sell any assets. Logistically, anyone holding NU or KEEP can wrap         those assets in order to upgrade to T. They can also unwrap T in         order to downgrade back to the underlying asset. There is a separate         instance of this contract deployed for KEEP holders and a separate         instance of this contract deployed for NU holders.",
    "version": 1
  },
  "storageLayout": {
    "storage": [
      {
        "astId": 15943,
        "contract": "contracts/vending/VendingMachine.sol:VendingMachine",
        "label": "wrappedBalance",
        "offset": 0,
        "slot": "0",
        "type": "t_mapping(t_address,t_uint256)"
      }
    ],
    "types": {
      "t_address": {
        "encoding": "inplace",
        "label": "address",
        "numberOfBytes": "20"
      },
      "t_mapping(t_address,t_uint256)": {
        "encoding": "mapping",
        "key": "t_address",
        "label": "mapping(address => uint256)",
        "numberOfBytes": "32",
        "value": "t_uint256"
      },
      "t_uint256": {
        "encoding": "inplace",
        "label": "uint256",
        "numberOfBytes": "32"
      }
    }
  }
}